{
  "contractName": "ProductTrace",
  "abi": [
    {
      "inputs": [],
      "stateMutability": "nonpayable",
      "type": "constructor"
    },
    {
      "anonymous": false,
      "inputs": [
        {
          "indexed": true,
          "internalType": "bytes32",
          "name": "role",
          "type": "bytes32"
        },
        {
          "indexed": true,
          "internalType": "bytes32",
          "name": "previousAdminRole",
          "type": "bytes32"
        },
        {
          "indexed": true,
          "internalType": "bytes32",
          "name": "newAdminRole",
          "type": "bytes32"
        }
      ],
      "name": "RoleAdminChanged",
      "type": "event"
    },
    {
      "anonymous": false,
      "inputs": [
        {
          "indexed": true,
          "internalType": "bytes32",
          "name": "role",
          "type": "bytes32"
        },
        {
          "indexed": true,
          "internalType": "address",
          "name": "account",
          "type": "address"
        },
        {
          "indexed": true,
          "internalType": "address",
          "name": "sender",
          "type": "address"
        }
      ],
      "name": "RoleGranted",
      "type": "event"
    },
    {
      "anonymous": false,
      "inputs": [
        {
          "indexed": true,
          "internalType": "bytes32",
          "name": "role",
          "type": "bytes32"
        },
        {
          "indexed": true,
          "internalType": "address",
          "name": "account",
          "type": "address"
        },
        {
          "indexed": true,
          "internalType": "address",
          "name": "sender",
          "type": "address"
        }
      ],
      "name": "RoleRevoked",
      "type": "event"
    },
    {
      "anonymous": false,
      "inputs": [
        {
          "indexed": true,
          "internalType": "address",
          "name": "_from",
          "type": "address"
        },
        {
          "indexed": true,
          "internalType": "address",
          "name": "_to",
          "type": "address"
        },
        {
          "indexed": true,
          "internalType": "uint256",
          "name": "_productId",
          "type": "uint256"
        }
      ],
      "name": "confirmProductEvent",
      "type": "event"
    },
    {
      "anonymous": false,
      "inputs": [
        {
          "components": [
            {
              "internalType": "uint256",
              "name": "productID",
              "type": "uint256"
            },
            {
              "internalType": "bytes32",
              "name": "productName",
              "type": "bytes32"
            },
            {
              "internalType": "address",
              "name": "Provider",
              "type": "address"
            },
            {
              "internalType": "bytes32",
              "name": "Retailer",
              "type": "bytes32"
            },
            {
              "internalType": "bool",
              "name": "isConfirmByRetailer",
              "type": "bool"
            }
          ],
          "indexed": false,
          "internalType": "struct TomatoCheck.Product",
          "name": "product",
          "type": "tuple"
        }
      ],
      "name": "productEvent",
      "type": "event"
    },
    {
      "anonymous": false,
      "inputs": [
        {
          "components": [
            {
              "internalType": "address",
              "name": "companyAddress",
              "type": "address"
            },
            {
              "internalType": "bytes32",
              "name": "companyName",
              "type": "bytes32"
            }
          ],
          "indexed": false,
          "internalType": "struct TomatoCheck.Company",
          "name": "company",
          "type": "tuple"
        }
      ],
      "name": "setCompanyEvent",
      "type": "event"
    },
    {
      "anonymous": false,
      "inputs": [
        {
          "indexed": true,
          "internalType": "address",
          "name": "_from",
          "type": "address"
        },
        {
          "indexed": true,
          "internalType": "address",
          "name": "_to",
          "type": "address"
        },
        {
          "indexed": true,
          "internalType": "uint256",
          "name": "_productId",
          "type": "uint256"
        }
      ],
      "name": "transferProductEvent",
      "type": "event"
    },
    {
      "inputs": [],
      "name": "ADMIN_ROLE",
      "outputs": [
        {
          "internalType": "bytes32",
          "name": "",
          "type": "bytes32"
        }
      ],
      "stateMutability": "view",
      "type": "function",
      "constant": true
    },
    {
      "inputs": [],
      "name": "COMPANY_ROLE",
      "outputs": [
        {
          "internalType": "bytes32",
          "name": "",
          "type": "bytes32"
        }
      ],
      "stateMutability": "view",
      "type": "function",
      "constant": true
    },
    {
      "inputs": [],
      "name": "DEFAULT_ADMIN_ROLE",
      "outputs": [
        {
          "internalType": "bytes32",
          "name": "",
          "type": "bytes32"
        }
      ],
      "stateMutability": "view",
      "type": "function",
      "constant": true
    },
    {
      "inputs": [],
      "name": "PRODUCER_ROLE",
      "outputs": [
        {
          "internalType": "bytes32",
          "name": "",
          "type": "bytes32"
        }
      ],
      "stateMutability": "view",
      "type": "function",
      "constant": true
    },
    {
      "inputs": [],
      "name": "RETAILER_ROLE",
      "outputs": [
        {
          "internalType": "bytes32",
          "name": "",
          "type": "bytes32"
        }
      ],
      "stateMutability": "view",
      "type": "function",
      "constant": true
    },
    {
      "inputs": [
        {
          "internalType": "uint256",
          "name": "productID",
          "type": "uint256"
        }
      ],
      "name": "acceptByRetailer",
      "outputs": [],
      "stateMutability": "nonpayable",
      "type": "function"
    },
    {
      "inputs": [
        {
          "internalType": "address",
          "name": "",
          "type": "address"
        }
      ],
      "name": "companies",
      "outputs": [
        {
          "internalType": "address",
          "name": "companyAddress",
          "type": "address"
        },
        {
          "internalType": "bytes32",
          "name": "companyName",
          "type": "bytes32"
        }
      ],
      "stateMutability": "view",
      "type": "function",
      "constant": true
    },
    {
      "inputs": [
        {
          "internalType": "address",
          "name": "",
          "type": "address"
        },
        {
          "internalType": "uint256",
          "name": "",
          "type": "uint256"
        }
      ],
      "name": "companyProductMapping",
      "outputs": [
        {
          "internalType": "address",
          "name": "from",
          "type": "address"
        },
        {
          "internalType": "address",
          "name": "retailer",
          "type": "address"
        },
        {
          "internalType": "uint256",
          "name": "productId",
          "type": "uint256"
        },
        {
          "internalType": "bytes32",
          "name": "ownerRole",
          "type": "bytes32"
        },
        {
          "internalType": "bool",
          "name": "isApproved",
          "type": "bool"
        }
      ],
      "stateMutability": "view",
      "type": "function",
      "constant": true
    },
    {
      "inputs": [
        {
          "internalType": "uint256",
          "name": "productID",
          "type": "uint256"
        },
        {
          "internalType": "bytes32",
          "name": "productName",
          "type": "bytes32"
        },
        {
          "internalType": "address",
          "name": "Provider",
          "type": "address"
        },
        {
          "internalType": "bool",
          "name": "isConfirmByRetailer",
          "type": "bool"
        },
        {
          "internalType": "bytes32",
          "name": "Retailer",
          "type": "bytes32"
        }
      ],
      "name": "createProduct",
      "outputs": [],
      "stateMutability": "payable",
      "type": "function",
      "payable": true
    },
    {
      "inputs": [
        {
          "internalType": "uint256",
          "name": "_productId",
          "type": "uint256"
        }
      ],
      "name": "getProductDairyByProductID",
      "outputs": [
        {
          "internalType": "uint256",
          "name": "",
          "type": "uint256"
        }
      ],
      "stateMutability": "view",
      "type": "function",
      "constant": true
    },
    {
      "inputs": [
        {
          "internalType": "bytes32",
          "name": "role",
          "type": "bytes32"
        }
      ],
      "name": "getRoleAdmin",
      "outputs": [
        {
          "internalType": "bytes32",
          "name": "",
          "type": "bytes32"
        }
      ],
      "stateMutability": "view",
      "type": "function",
      "constant": true
    },
    {
      "inputs": [
        {
          "internalType": "bytes32",
          "name": "role",
          "type": "bytes32"
        },
        {
          "internalType": "address",
          "name": "account",
          "type": "address"
        }
      ],
      "name": "grantRole",
      "outputs": [],
      "stateMutability": "nonpayable",
      "type": "function"
    },
    {
      "inputs": [
        {
          "internalType": "bytes32",
          "name": "role",
          "type": "bytes32"
        },
        {
          "internalType": "address",
          "name": "account",
          "type": "address"
        }
      ],
      "name": "hasRole",
      "outputs": [
        {
          "internalType": "bool",
          "name": "",
          "type": "bool"
        }
      ],
      "stateMutability": "view",
      "type": "function",
      "constant": true
    },
    {
      "inputs": [
        {
          "internalType": "address",
          "name": "_address",
          "type": "address"
        }
      ],
      "name": "isCompany",
      "outputs": [
        {
          "internalType": "bool",
          "name": "",
          "type": "bool"
        }
      ],
      "stateMutability": "view",
      "type": "function",
      "constant": true
    },
    {
      "inputs": [],
      "name": "isStopped",
      "outputs": [
        {
          "internalType": "bool",
          "name": "",
          "type": "bool"
        }
      ],
      "stateMutability": "view",
      "type": "function",
      "constant": true
    },
    {
      "inputs": [
        {
          "internalType": "uint256",
          "name": "",
          "type": "uint256"
        },
        {
          "internalType": "uint256",
          "name": "",
          "type": "uint256"
        }
      ],
      "name": "productDairy",
      "outputs": [
        {
          "internalType": "uint256",
          "name": "timestamp",
          "type": "uint256"
        },
        {
          "internalType": "bytes32",
          "name": "message",
          "type": "bytes32"
        }
      ],
      "stateMutability": "view",
      "type": "function",
      "constant": true
    },
    {
      "inputs": [
        {
          "internalType": "uint256",
          "name": "",
          "type": "uint256"
        }
      ],
      "name": "products",
      "outputs": [
        {
          "internalType": "uint256",
          "name": "productID",
          "type": "uint256"
        },
        {
          "internalType": "bytes32",
          "name": "productName",
          "type": "bytes32"
        },
        {
          "internalType": "address",
          "name": "Provider",
          "type": "address"
        },
        {
          "internalType": "bytes32",
          "name": "Retailer",
          "type": "bytes32"
        },
        {
          "internalType": "bool",
          "name": "isConfirmByRetailer",
          "type": "bool"
        }
      ],
      "stateMutability": "view",
      "type": "function",
      "constant": true
    },
    {
      "inputs": [
        {
          "internalType": "bytes32",
          "name": "role",
          "type": "bytes32"
        },
        {
          "internalType": "address",
          "name": "account",
          "type": "address"
        }
      ],
      "name": "renounceRole",
      "outputs": [],
      "stateMutability": "nonpayable",
      "type": "function"
    },
    {
      "inputs": [],
      "name": "resumeContract",
      "outputs": [],
      "stateMutability": "nonpayable",
      "type": "function"
    },
    {
      "inputs": [
        {
          "internalType": "bytes32",
          "name": "role",
          "type": "bytes32"
        },
        {
          "internalType": "address",
          "name": "account",
          "type": "address"
        }
      ],
      "name": "revokeRole",
      "outputs": [],
      "stateMutability": "nonpayable",
      "type": "function"
    },
    {
      "inputs": [],
      "name": "selfDestruct",
      "outputs": [],
      "stateMutability": "nonpayable",
      "type": "function"
    },
    {
      "inputs": [
        {
          "internalType": "address",
          "name": "companyAddress",
          "type": "address"
        },
        {
          "internalType": "bytes32",
          "name": "companyName",
          "type": "bytes32"
        }
      ],
      "name": "setCompany",
      "outputs": [],
      "stateMutability": "payable",
      "type": "function",
      "payable": true
    },
    {
      "inputs": [],
      "name": "stopContract",
      "outputs": [],
      "stateMutability": "nonpayable",
      "type": "function"
    },
    {
      "inputs": [
        {
          "internalType": "bytes4",
          "name": "interfaceId",
          "type": "bytes4"
        }
      ],
      "name": "supportsInterface",
      "outputs": [
        {
          "internalType": "bool",
          "name": "",
          "type": "bool"
        }
      ],
      "stateMutability": "view",
      "type": "function",
      "constant": true
    },
    {
      "inputs": [
        {
          "internalType": "uint256",
          "name": "amount",
          "type": "uint256"
        }
      ],
      "name": "withdraw",
      "outputs": [],
      "stateMutability": "nonpayable",
      "type": "function"
    },
    {
      "inputs": [
        {
          "internalType": "uint256",
          "name": "_productId",
          "type": "uint256"
        },
        {
          "internalType": "bytes32",
          "name": "_message",
          "type": "bytes32"
        }
      ],
      "name": "writeProductDairy",
      "outputs": [],
      "stateMutability": "nonpayable",
      "type": "function"
    },
    {
      "stateMutability": "payable",
      "type": "receive",
      "payable": true
    },
    {
      "inputs": [
        {
          "internalType": "address",
          "name": "_from",
          "type": "address"
        },
        {
          "internalType": "address",
          "name": "_to",
          "type": "address"
        },
        {
          "internalType": "uint256",
          "name": "_productId",
          "type": "uint256"
        }
      ],
      "name": "transferProduct",
      "outputs": [],
      "stateMutability": "nonpayable",
      "type": "function"
    },
    {
      "inputs": [
        {
          "internalType": "uint256",
          "name": "_productId",
          "type": "uint256"
        }
      ],
      "name": "confirmProduct",
      "outputs": [],
      "stateMutability": "nonpayable",
      "type": "function"
    }
  ],
  "bytecode": "0x60806040526000600260006101000a81548160ff0219169083151502179055503480156200002c57600080fd5b50620000426000801b336200007a60201b60201c565b620000747fa49807205ce4d355092ef5a8a18f56e8913cf4a201fbe287825b095693c21775336200007a60201b60201c565b620001f3565b6200008c82826200009060201b60201c565b5050565b620000a282826200018160201b60201c565b6200017d57600160008084815260200190815260200160002060000160008373ffffffffffffffffffffffffffffffffffffffff1673ffffffffffffffffffffffffffffffffffffffff16815260200190815260200160002060006101000a81548160ff02191690831515021790555062000122620001eb60201b60201c565b73ffffffffffffffffffffffffffffffffffffffff168173ffffffffffffffffffffffffffffffffffffffff16837f2f8788117e7eff1d82e926ec794901d17c78024a50270940304540a733656f0d60405160405180910390a45b5050565b600080600084815260200190815260200160002060000160008373ffffffffffffffffffffffffffffffffffffffff1673ffffffffffffffffffffffffffffffffffffffff16815260200190815260200160002060009054906101000a900460ff16905092915050565b600033905090565b612f2480620002036000396000f3fe6080604052600436106101bb5760003560e01c8063729a914d116100ec578063a0406ce21161008a578063cb3e1fe711610064578063cb3e1fe714610624578063d547741f1461064f578063d9a5f7fb14610678578063deda532a14610694576101c2565b8063a0406ce2146105a5578063a217fddf146105e2578063c4bc5da51461060d576101c2565b80637b59e4e5116100c65780637b59e4e5146104ff57806391d148541461052857806394f976c3146105655780639cb8a26a1461058e576101c2565b8063729a914d1461045657806375b238fc146104935780637acc0b20146104be576101c2565b80632f2ff15d116101595780633f683b6a116101335780633f683b6a146103a85780634e470458146103d3578063575553f7146104115780637166edc51461043a576101c2565b80632f2ff15d14610318578063355e6ce81461034157806336568abe1461037f576101c2565b80631c9ee11a116101955780631c9ee11a1461025c5780632115e7bf14610287578063248a9ca3146102b25780632e1a7d4d146102ef576101c2565b806301ffc9a7146101c757806312253a6c1461020457806316fc84341461021b576101c2565b366101c257005b600080fd5b3480156101d357600080fd5b506101ee60048036038101906101e9919061211a565b6106bd565b6040516101fb91906126e4565b60405180910390f35b34801561021057600080fd5b50610219610737565b005b34801561022757600080fd5b50610242600480360381019061023d9190612079565b610787565b604051610253959493929190612668565b60405180910390f35b34801561026857600080fd5b50610271610817565b60405161027e91906126ff565b60405180910390f35b34801561029357600080fd5b5061029c61083b565b6040516102a991906126ff565b60405180910390f35b3480156102be57600080fd5b506102d960048036038101906102d491906120b5565b61085f565b6040516102e691906126ff565b60405180910390f35b3480156102fb57600080fd5b5061031660048036038101906103119190612143565b61087e565b005b34801561032457600080fd5b5061033f600480360381019061033a91906120de565b6109d7565b005b34801561034d57600080fd5b5061036860048036038101906103639190611fc5565b610a00565b6040516103769291906126bb565b60405180910390f35b34801561038b57600080fd5b506103a660048036038101906103a191906120de565b610a44565b005b3480156103b457600080fd5b506103bd610ac7565b6040516103ca91906126e4565b60405180910390f35b3480156103df57600080fd5b506103fa60048036038101906103f5919061221f565b610ada565b6040516104089291906128c8565b60405180910390f35b34801561041d57600080fd5b506104386004803603810190610433919061216c565b610b1b565b005b610454600480360381019061044f919061203d565b610bbf565b005b34801561046257600080fd5b5061047d60048036038101906104789190612143565b610d4c565b60405161048a91906128ad565b60405180910390f35b34801561049f57600080fd5b506104a8610d6c565b6040516104b591906126ff565b60405180910390f35b3480156104ca57600080fd5b506104e560048036038101906104e09190612143565b610d90565b6040516104f69594939291906128f1565b60405180910390f35b34801561050b57600080fd5b5061052660048036038101906105219190612143565b610df3565b005b34801561053457600080fd5b5061054f600480360381019061054a91906120de565b610f51565b60405161055c91906126e4565b60405180910390f35b34801561057157600080fd5b5061058c60048036038101906105879190612143565b610fbb565b005b34801561059a57600080fd5b506105a361128e565b005b3480156105b157600080fd5b506105cc60048036038101906105c79190611fc5565b6112f2565b6040516105d991906126e4565b60405180910390f35b3480156105ee57600080fd5b506105f7611325565b60405161060491906126ff565b60405180910390f35b34801561061957600080fd5b5061062261132c565b005b34801561063057600080fd5b5061063961137c565b60405161064691906126ff565b60405180910390f35b34801561065b57600080fd5b50610676600480360381019061067191906120de565b6113a0565b005b610692600480360381019061068d91906121a8565b6113c9565b005b3480156106a057600080fd5b506106bb60048036038101906106b69190611fee565b61157d565b005b60007f7965db0b000000000000000000000000000000000000000000000000000000007bffffffffffffffffffffffffffffffffffffffffffffffffffffffff1916827bffffffffffffffffffffffffffffffffffffffffffffffffffffffff19161480610730575061072f82611992565b5b9050919050565b7fa49807205ce4d355092ef5a8a18f56e8913cf4a201fbe287825b095693c21775610769816107646119fc565b611a04565b6001600260006101000a81548160ff02191690831515021790555050565b6005602052816000526040600020602052806000526040600020600091509150508060000160009054906101000a900473ffffffffffffffffffffffffffffffffffffffff16908060010160009054906101000a900473ffffffffffffffffffffffffffffffffffffffff16908060020154908060030154908060040160009054906101000a900460ff16905085565b7f9e1688b53537f356172ce07f39e129155063957163c5f9462d4d9e55b228b06c81565b7f2a5f906c256a5d799494fcd066e1f6c077689de1cdb65052a1624de4bace99bf81565b6000806000838152602001908152602001600020600101549050919050565b7fa49807205ce4d355092ef5a8a18f56e8913cf4a201fbe287825b095693c217756108b0816108ab6119fc565b611a04565b6108da7fa49807205ce4d355092ef5a8a18f56e8913cf4a201fbe287825b095693c2177533610f51565b6108e357600080fd5b81471015610926576040517f08c379a000000000000000000000000000000000000000000000000000000000815260040161091d9061275c565b60405180910390fd5b60003373ffffffffffffffffffffffffffffffffffffffff168360405161094c90612619565b60006040518083038185875af1925050503d8060008114610989576040519150601f19603f3d011682016040523d82523d6000602084013e61098e565b606091505b50509050806109d2576040517f08c379a00000000000000000000000000000000000000000000000000000000081526004016109c9906127fc565b60405180910390fd5b505050565b6109e08261085f565b6109f1816109ec6119fc565b611a04565b6109fb8383611aa1565b505050565b60036020528060005260406000206000915090508060000160009054906101000a900473ffffffffffffffffffffffffffffffffffffffff16908060010154905082565b610a4c6119fc565b73ffffffffffffffffffffffffffffffffffffffff168173ffffffffffffffffffffffffffffffffffffffff1614610ab9576040517f08c379a0000000000000000000000000000000000000000000000000000000008152600401610ab09061283c565b60405180910390fd5b610ac38282611b81565b5050565b600260009054906101000a900460ff1681565b60016020528160005260406000208181548110610af657600080fd5b9060005260206000209060020201600091509150508060000154908060010154905082565b7f9e1688b53537f356172ce07f39e129155063957163c5f9462d4d9e55b228b06c610b4d81610b486119fc565b611a04565b60006040518060400160405280428152602001848152509050600160008581526020019081526020016000208190806001815401808255809150506001900390600052602060002090600202016000909190919091506000820151816000015560208201518160010155505050505050565b600260009054906101000a900460ff1615610bd957600080fd5b662386f26fc10000341015610c23576040517f08c379a0000000000000000000000000000000000000000000000000000000008152600401610c1a9061275c565b60405180910390fd5b600060405180604001604052808473ffffffffffffffffffffffffffffffffffffffff168152602001838152509050610c7c7f9e1688b53537f356172ce07f39e129155063957163c5f9462d4d9e55b228b06c84611aa1565b80600360008573ffffffffffffffffffffffffffffffffffffffff1673ffffffffffffffffffffffffffffffffffffffff16815260200190815260200160002060008201518160000160006101000a81548173ffffffffffffffffffffffffffffffffffffffff021916908373ffffffffffffffffffffffffffffffffffffffff160217905550602082015181600101559050507f8a07c42032bbcf5858e4d91c0f29a46b32c52a52d82e93a680a9233aeaebe41281604051610d3f919061285c565b60405180910390a1505050565b600060016000838152602001908152602001600020805490509050919050565b7fa49807205ce4d355092ef5a8a18f56e8913cf4a201fbe287825b095693c2177581565b60046020528060005260406000206000915090508060000154908060010154908060020160009054906101000a900473ffffffffffffffffffffffffffffffffffffffff16908060030154908060040160009054906101000a900460ff16905085565b7f9e1688b53537f356172ce07f39e129155063957163c5f9462d4d9e55b228b06c610e2581610e206119fc565b611a04565b81600015156004600083815260200190815260200160002060040160009054906101000a900460ff16151514610e90576040517f08c379a0000000000000000000000000000000000000000000000000000000008152600401610e87906127bc565b60405180910390fd5b600260009054906101000a900460ff1615610eaa57600080fd5b60016004600085815260200190815260200160002060040160006101000a81548160ff021916908315150217905550610f03837f52657461696c6572206163636570742070726f64756374000000000000000000610b1b565b7f7a68e85646e6cf4b5a14ee424f476bee57aa92f32f43b84aa308d6b481f24c0a60046000858152602001908152602001600020604051610f449190612892565b60405180910390a1505050565b600080600084815260200190815260200160002060000160008373ffffffffffffffffffffffffffffffffffffffff1673ffffffffffffffffffffffffffffffffffffffff16815260200190815260200160002060009054906101000a900460ff16905092915050565b7f9e1688b53537f356172ce07f39e129155063957163c5f9462d4d9e55b228b06c610fed81610fe86119fc565b611a04565b600073ffffffffffffffffffffffffffffffffffffffff16600560003373ffffffffffffffffffffffffffffffffffffffff1673ffffffffffffffffffffffffffffffffffffffff168152602001908152602001600020600084815260200190815260200160002060010160009054906101000a900473ffffffffffffffffffffffffffffffffffffffff1673ffffffffffffffffffffffffffffffffffffffff1614156110d0576040517f08c379a00000000000000000000000000000000000000000000000000000000081526004016110c7906127dc565b60405180910390fd5b600560003373ffffffffffffffffffffffffffffffffffffffff1673ffffffffffffffffffffffffffffffffffffffff168152602001908152602001600020600083815260200190815260200160002060040160009054906101000a900460ff1615611171576040517f08c379a00000000000000000000000000000000000000000000000000000000081526004016111689061281c565b60405180910390fd5b6000600560003373ffffffffffffffffffffffffffffffffffffffff1673ffffffffffffffffffffffffffffffffffffffff1681526020019081526020016000206000848152602001908152602001600020905060018160040160006101000a81548160ff02191690831515021790555080600201548160010160009054906101000a900473ffffffffffffffffffffffffffffffffffffffff1673ffffffffffffffffffffffffffffffffffffffff168260000160009054906101000a900473ffffffffffffffffffffffffffffffffffffffff1673ffffffffffffffffffffffffffffffffffffffff167feb1883a844f8823c1ad9f7cfa3e479acac3d806d87a648673c98d6afb266228760405160405180910390a4505050565b600260009054906101000a900460ff166112a757600080fd5b7fa49807205ce4d355092ef5a8a18f56e8913cf4a201fbe287825b095693c217756112d9816112d46119fc565b611a04565b3373ffffffffffffffffffffffffffffffffffffffff16ff5b600061131e7f9e1688b53537f356172ce07f39e129155063957163c5f9462d4d9e55b228b06c83610f51565b9050919050565b6000801b81565b7fa49807205ce4d355092ef5a8a18f56e8913cf4a201fbe287825b095693c2177561135e816113596119fc565b611a04565b6000600260006101000a81548160ff02191690831515021790555050565b7f8eb467f061ca67f42a2d2ca4a346fc9fb645efc0ba75056ee9f71c3a0ccc10a881565b6113a98261085f565b6113ba816113b56119fc565b611a04565b6113c48383611b81565b505050565b7f9e1688b53537f356172ce07f39e129155063957163c5f9462d4d9e55b228b06c6113fb816113f66119fc565b611a04565b600260009054906101000a900460ff161561141557600080fd5b655af3107a400034101561145e576040517f08c379a00000000000000000000000000000000000000000000000000000000081526004016114559061275c565b60405180910390fd5b60006040518060a001604052808881526020018781526020018673ffffffffffffffffffffffffffffffffffffffff16815260200184815260200185151581525090508060046000898152602001908152602001600020600082015181600001556020820151816001015560408201518160020160006101000a81548173ffffffffffffffffffffffffffffffffffffffff021916908373ffffffffffffffffffffffffffffffffffffffff1602179055506060820151816003015560808201518160040160006101000a81548160ff0219169083151502179055509050507f7a68e85646e6cf4b5a14ee424f476bee57aa92f32f43b84aa308d6b481f24c0a8160405161156c9190612877565b60405180910390a150505050505050565b7f9e1688b53537f356172ce07f39e129155063957163c5f9462d4d9e55b228b06c6115af816115aa6119fc565b611a04565b813373ffffffffffffffffffffffffffffffffffffffff166004600083815260200190815260200160002060020160009054906101000a900473ffffffffffffffffffffffffffffffffffffffff1673ffffffffffffffffffffffffffffffffffffffff16148061167d5750600560003373ffffffffffffffffffffffffffffffffffffffff1673ffffffffffffffffffffffffffffffffffffffff168152602001908152602001600020600082815260200190815260200160002060040160009054906101000a900460ff165b6116bc576040517f08c379a00000000000000000000000000000000000000000000000000000000081526004016116b39061277c565b60405180910390fd5b600073ffffffffffffffffffffffffffffffffffffffff16600560008673ffffffffffffffffffffffffffffffffffffffff1673ffffffffffffffffffffffffffffffffffffffff168152602001908152602001600020600085815260200190815260200160002060010160009054906101000a900473ffffffffffffffffffffffffffffffffffffffff1673ffffffffffffffffffffffffffffffffffffffff16141561179f576040517f08c379a00000000000000000000000000000000000000000000000000000000081526004016117969061279c565b60405180910390fd5b60006040518060a001604052808773ffffffffffffffffffffffffffffffffffffffff1681526020018673ffffffffffffffffffffffffffffffffffffffff1681526020018581526020017f2a5f906c256a5d799494fcd066e1f6c077689de1cdb65052a1624de4bace99bf815260200160001515815250905080600560008773ffffffffffffffffffffffffffffffffffffffff1673ffffffffffffffffffffffffffffffffffffffff168152602001908152602001600020600086815260200190815260200160002060008201518160000160006101000a81548173ffffffffffffffffffffffffffffffffffffffff021916908373ffffffffffffffffffffffffffffffffffffffff16021790555060208201518160010160006101000a81548173ffffffffffffffffffffffffffffffffffffffff021916908373ffffffffffffffffffffffffffffffffffffffff160217905550604082015181600201556060820151816003015560808201518160040160006101000a81548160ff021916908315150217905550905050838573ffffffffffffffffffffffffffffffffffffffff168773ffffffffffffffffffffffffffffffffffffffff167f565e5b15cfd5a861f5b9c155237e6f3a30ed5ed83500536774daaaab3620e44560405160405180910390a4505050505050565b60007f01ffc9a7000000000000000000000000000000000000000000000000000000007bffffffffffffffffffffffffffffffffffffffffffffffffffffffff1916827bffffffffffffffffffffffffffffffffffffffffffffffffffffffff1916149050919050565b600033905090565b611a0e8282610f51565b611a9d57611a338173ffffffffffffffffffffffffffffffffffffffff166014611c62565b611a418360001c6020611c62565b604051602001611a5292919061262e565b6040516020818303038152906040526040517f08c379a0000000000000000000000000000000000000000000000000000000008152600401611a94919061271a565b60405180910390fd5b5050565b611aab8282610f51565b611b7d57600160008084815260200190815260200160002060000160008373ffffffffffffffffffffffffffffffffffffffff1673ffffffffffffffffffffffffffffffffffffffff16815260200190815260200160002060006101000a81548160ff021916908315150217905550611b226119fc565b73ffffffffffffffffffffffffffffffffffffffff168173ffffffffffffffffffffffffffffffffffffffff16837f2f8788117e7eff1d82e926ec794901d17c78024a50270940304540a733656f0d60405160405180910390a45b5050565b611b8b8282610f51565b15611c5e57600080600084815260200190815260200160002060000160008373ffffffffffffffffffffffffffffffffffffffff1673ffffffffffffffffffffffffffffffffffffffff16815260200190815260200160002060006101000a81548160ff021916908315150217905550611c036119fc565b73ffffffffffffffffffffffffffffffffffffffff168173ffffffffffffffffffffffffffffffffffffffff16837ff6391f5c32d9c69d2a47ea670b442974b53935d1edc7fd64eb21e047a839171b60405160405180910390a45b5050565b606060006002836002611c7591906129cc565b611c7f9190612976565b67ffffffffffffffff811115611cbe577f4e487b7100000000000000000000000000000000000000000000000000000000600052604160045260246000fd5b6040519080825280601f01601f191660200182016040528015611cf05781602001600182028036833780820191505090505b5090507f300000000000000000000000000000000000000000000000000000000000000081600081518110611d4e577f4e487b7100000000000000000000000000000000000000000000000000000000600052603260045260246000fd5b60200101907effffffffffffffffffffffffffffffffffffffffffffffffffffffffffffff1916908160001a9053507f780000000000000000000000000000000000000000000000000000000000000081600181518110611dd8577f4e487b7100000000000000000000000000000000000000000000000000000000600052603260045260246000fd5b60200101907effffffffffffffffffffffffffffffffffffffffffffffffffffffffffffff1916908160001a90535060006001846002611e1891906129cc565b611e229190612976565b90505b6001811115611f0e577f3031323334353637383961626364656600000000000000000000000000000000600f861660108110611e8a577f4e487b7100000000000000000000000000000000000000000000000000000000600052603260045260246000fd5b1a60f81b828281518110611ec7577f4e487b7100000000000000000000000000000000000000000000000000000000600052603260045260246000fd5b60200101907effffffffffffffffffffffffffffffffffffffffffffffffffffffffffffff1916908160001a905350600485901c945080611f0790612b18565b9050611e25565b5060008414611f52576040517f08c379a0000000000000000000000000000000000000000000000000000000008152600401611f499061273c565b60405180910390fd5b8091505092915050565b600081359050611f6b81612e7b565b92915050565b600081359050611f8081612e92565b92915050565b600081359050611f9581612ea9565b92915050565b600081359050611faa81612ec0565b92915050565b600081359050611fbf81612ed7565b92915050565b600060208284031215611fd757600080fd5b6000611fe584828501611f5c565b91505092915050565b60008060006060848603121561200357600080fd5b600061201186828701611f5c565b935050602061202286828701611f5c565b925050604061203386828701611fb0565b9150509250925092565b6000806040838503121561205057600080fd5b600061205e85828601611f5c565b925050602061206f85828601611f86565b9150509250929050565b6000806040838503121561208c57600080fd5b600061209a85828601611f5c565b92505060206120ab85828601611fb0565b9150509250929050565b6000602082840312156120c757600080fd5b60006120d584828501611f86565b91505092915050565b600080604083850312156120f157600080fd5b60006120ff85828601611f86565b925050602061211085828601611f5c565b9150509250929050565b60006020828403121561212c57600080fd5b600061213a84828501611f9b565b91505092915050565b60006020828403121561215557600080fd5b600061216384828501611fb0565b91505092915050565b6000806040838503121561217f57600080fd5b600061218d85828601611fb0565b925050602061219e85828601611f86565b9150509250929050565b600080600080600060a086880312156121c057600080fd5b60006121ce88828901611fb0565b95505060206121df88828901611f86565b94505060406121f088828901611f5c565b935050606061220188828901611f71565b925050608061221288828901611f86565b9150509295509295909350565b6000806040838503121561223257600080fd5b600061224085828601611fb0565b925050602061225185828601611fb0565b9150509250929050565b61226481612a67565b82525050565b61227381612a67565b82525050565b61228281612a79565b82525050565b61229181612a79565b82525050565b6122a081612a85565b82525050565b6122af81612a85565b82525050565b60006122c082612944565b6122ca818561295a565b93506122da818560208601612ae5565b6122e381612bd9565b840191505092915050565b60006122f982612944565b612303818561296b565b9350612313818560208601612ae5565b80840191505092915050565b600061232c60208361295a565b915061233782612bf7565b602082019050919050565b600061234f600e8361295a565b915061235a82612c20565b602082019050919050565b600061237260228361295a565b915061237d82612c49565b604082019050919050565b600061239560318361295a565b91506123a082612c98565b604082019050919050565b60006123b8601f8361295a565b91506123c382612ce7565b602082019050919050565b60006123db602e8361295a565b91506123e682612d10565b604082019050919050565b60006123fe60008361294f565b915061240982612d5f565b600082019050919050565b600061242160108361295a565b915061242c82612d62565b602082019050919050565b600061244460288361295a565b915061244f82612d8b565b604082019050919050565b600061246760178361296b565b915061247282612dda565b601782019050919050565b600061248a60118361296b565b915061249582612e03565b601182019050919050565b60006124ad602f8361295a565b91506124b882612e2c565b604082019050919050565b6040820160008201516124d9600085018261225b565b5060208201516124ec6020850182612297565b50505050565b60a08201600082015161250860008501826125fb565b50602082015161251b6020850182612297565b50604082015161252e604085018261225b565b5060608201516125416060850182612297565b5060808201516125546080850182612279565b50505050565b60a08201600080830154905061256f81612b90565b61257c60008601826125fb565b506001830154905061258d81612b76565b61259a6020860182612297565b50600283015490506125ab81612b42565b6125b8604086018261225b565b50600383015490506125c981612b76565b6125d66060860182612297565b50600483015490506125e781612b5c565b6125f46080860182612279565b5050505050565b61260481612adb565b82525050565b61261381612adb565b82525050565b6000612624826123f1565b9150819050919050565b60006126398261245a565b915061264582856122ee565b91506126508261247d565b915061265c82846122ee565b91508190509392505050565b600060a08201905061267d600083018861226a565b61268a602083018761226a565b612697604083018661260a565b6126a460608301856122a6565b6126b16080830184612288565b9695505050505050565b60006040820190506126d0600083018561226a565b6126dd60208301846122a6565b9392505050565b60006020820190506126f96000830184612288565b92915050565b600060208201905061271460008301846122a6565b92915050565b6000602082019050818103600083015261273481846122b5565b905092915050565b600060208201905081810360008301526127558161231f565b9050919050565b6000602082019050818103600083015261277581612342565b9050919050565b6000602082019050818103600083015261279581612365565b9050919050565b600060208201905081810360008301526127b581612388565b9050919050565b600060208201905081810360008301526127d5816123ab565b9050919050565b600060208201905081810360008301526127f5816123ce565b9050919050565b6000602082019050818103600083015261281581612414565b9050919050565b6000602082019050818103600083015261283581612437565b9050919050565b60006020820190508181036000830152612855816124a0565b9050919050565b600060408201905061287160008301846124c3565b92915050565b600060a08201905061288c60008301846124f2565b92915050565b600060a0820190506128a7600083018461255a565b92915050565b60006020820190506128c2600083018461260a565b92915050565b60006040820190506128dd600083018561260a565b6128ea60208301846122a6565b9392505050565b600060a082019050612906600083018861260a565b61291360208301876122a6565b612920604083018661226a565b61292d60608301856122a6565b61293a6080830184612288565b9695505050505050565b600081519050919050565b600081905092915050565b600082825260208201905092915050565b600081905092915050565b600061298182612adb565b915061298c83612adb565b9250827fffffffffffffffffffffffffffffffffffffffffffffffffffffffffffffffff038211156129c1576129c0612baa565b5b828201905092915050565b60006129d782612adb565b91506129e283612adb565b9250817fffffffffffffffffffffffffffffffffffffffffffffffffffffffffffffffff0483118215151615612a1b57612a1a612baa565b5b828202905092915050565b600073ffffffffffffffffffffffffffffffffffffffff82169050919050565b600060ff82169050919050565b6000819050919050565b6000819050919050565b6000612a7282612abb565b9050919050565b60008115159050919050565b6000819050919050565b60007fffffffff0000000000000000000000000000000000000000000000000000000082169050919050565b600073ffffffffffffffffffffffffffffffffffffffff82169050919050565b6000819050919050565b60005b83811015612b03578082015181840152602081019050612ae8565b83811115612b12576000848401525b50505050565b6000612b2382612adb565b91506000821415612b3757612b36612baa565b5b600182039050919050565b6000612b55612b5083612bea565b612a26565b9050919050565b6000612b6f612b6a83612bea565b612a46565b9050919050565b6000612b89612b8483612bea565b612a53565b9050919050565b6000612ba3612b9e83612bea565b612a5d565b9050919050565b7f4e487b7100000000000000000000000000000000000000000000000000000000600052601160045260246000fd5b6000601f19601f8301169050919050565b60008160001c9050919050565b7f537472696e67733a20686578206c656e67746820696e73756666696369656e74600082015250565b7f496e76616c696420616d6f756e74000000000000000000000000000000000000600082015250565b7f436f6d70616e7920646f6e27742065786973747320746869732070726f64756360008201527f7421000000000000000000000000000000000000000000000000000000000000602082015250565b7f54686520726563656976696e6720636f6d70616e7920616c726561647920657860008201527f69737473207468652070726f6475637421000000000000000000000000000000602082015250565b7f546869732070726f6475637420616c726561647920636f6e6669726d65642100600082015250565b7f54686520636f6d70616e7920686173206e6f742072656365697665642074686960008201527f732070726f647563742079657421000000000000000000000000000000000000602082015250565b50565b7f5472616e73666572206661696c65642e00000000000000000000000000000000600082015250565b7f54686520636f6d70616e7920616c726561647920636f6e6669726d207468652060008201527f70726f6475637421000000000000000000000000000000000000000000000000602082015250565b7f416363657373436f6e74726f6c3a206163636f756e7420000000000000000000600082015250565b7f206973206d697373696e6720726f6c6520000000000000000000000000000000600082015250565b7f416363657373436f6e74726f6c3a2063616e206f6e6c792072656e6f756e636560008201527f20726f6c657320666f722073656c660000000000000000000000000000000000602082015250565b612e8481612a67565b8114612e8f57600080fd5b50565b612e9b81612a79565b8114612ea657600080fd5b50565b612eb281612a85565b8114612ebd57600080fd5b50565b612ec981612a8f565b8114612ed457600080fd5b50565b612ee081612adb565b8114612eeb57600080fd5b5056fea26469706673582212201c6fee388dc7ffdb132a904260a8dd851c2876aa71415f1dcd0c6b734dec7e4a64736f6c63430008040033",
  "immutableReferences": {},
  "source": "// SPDX-License-Identifier: MIT\r\npragma solidity ^0.8.4;\r\n\r\nimport \"./TomatoChain.sol\";\r\n\r\ncontract ProductTrace is TomatoCheck {\r\n    bytes32 public constant PRODUCER_ROLE = keccak256(\"PRODUCER_ROLE\");\r\n    bytes32 public constant RETAILER_ROLE = keccak256(\"RETAILER_ROLE\");\r\n\r\n    struct CompanyProduct {\r\n        address from;\r\n        address retailer;\r\n        uint productId;\r\n        bytes32 ownerRole;\r\n        bool isApproved;\r\n    }\r\n\r\n    mapping(address => mapping(uint => CompanyProduct)) public companyProductMapping;\r\n\r\n    event transferProductEvent(address indexed _from, address indexed _to, uint indexed _productId);\r\n    event confirmProductEvent(address indexed _from, address indexed _to, uint indexed _productId);\r\n\r\n    constructor() TomatoCheck() {}\r\n\r\n    modifier checkHasProduct(uint _productId){\r\n        require(products[_productId].Provider == msg.sender || companyProductMapping[msg.sender][_productId].isApproved\r\n        , \"Company don't exists this product!\");\r\n        _;\r\n    }\r\n\r\n    function transferProduct(address _from, address _to, uint _productId) external\r\n    onlyRole(COMPANY_ROLE) checkHasProduct(_productId) {\r\n        require(companyProductMapping[_to][_productId].retailer!=address(0), \"The receiving company already exists the product!\");\r\n        CompanyProduct memory companyProduct = CompanyProduct(_from,_to,_productId, RETAILER_ROLE, false);\r\n        companyProductMapping[_to][_productId] = companyProduct;\r\n        emit transferProductEvent(_from, _to, _productId);\r\n    }\r\n    \r\n    function confirmProduct(uint _productId) external onlyRole(COMPANY_ROLE){\r\n        require(companyProductMapping[msg.sender][_productId].retailer!=address(0) , \"The company has not received this product yet!\");\r\n        require(!companyProductMapping[msg.sender][_productId].isApproved, \"The company already confirm the product!\");\r\n        CompanyProduct storage cp=companyProductMapping[msg.sender][_productId];\r\n        cp.isApproved=true;\r\n        emit confirmProductEvent(cp.from,cp.retailer,cp.productId);\r\n    }\r\n}\r\n",
  "sourcePath": "D:\\HomeWork\\blockchain\\tomato-chain\\contracts\\ProductTrace.sol",
  "compiler": {
    "name": "solc",
    "version": "0.8.4+commit.c7e474f2.Emscripten.clang"
  },
  "schemaVersion": "3.4.7",
  "updatedAt": "2022-06-02T19:22:29.998Z",
  "networkType": "ethereum",
  "devdoc": {
    "kind": "dev",
    "methods": {
      "getRoleAdmin(bytes32)": {
        "details": "Returns the admin role that controls `role`. See {grantRole} and {revokeRole}. To change a role's admin, use {_setRoleAdmin}."
      },
      "grantRole(bytes32,address)": {
        "details": "Grants `role` to `account`. If `account` had not been already granted `role`, emits a {RoleGranted} event. Requirements: - the caller must have ``role``'s admin role."
      },
      "hasRole(bytes32,address)": {
        "details": "Returns `true` if `account` has been granted `role`."
      },
      "renounceRole(bytes32,address)": {
        "details": "Revokes `role` from the calling account. Roles are often managed via {grantRole} and {revokeRole}: this function's purpose is to provide a mechanism for accounts to lose their privileges if they are compromised (such as when a trusted device is misplaced). If the calling account had been revoked `role`, emits a {RoleRevoked} event. Requirements: - the caller must be `account`."
      },
      "revokeRole(bytes32,address)": {
        "details": "Revokes `role` from `account`. If `account` had been granted `role`, emits a {RoleRevoked} event. Requirements: - the caller must have ``role``'s admin role."
      },
      "supportsInterface(bytes4)": {
        "details": "See {IERC165-supportsInterface}."
      }
    },
    "version": 1
  },
  "userdoc": {
    "kind": "user",
    "methods": {},
    "version": 1
  }
}