{
  "contractName": "ProductTrace",
  "abi": [
    {
      "inputs": [],
      "stateMutability": "nonpayable",
      "type": "constructor"
    },
    {
      "anonymous": false,
      "inputs": [
        {
          "indexed": true,
          "internalType": "bytes32",
          "name": "role",
          "type": "bytes32"
        },
        {
          "indexed": true,
          "internalType": "bytes32",
          "name": "previousAdminRole",
          "type": "bytes32"
        },
        {
          "indexed": true,
          "internalType": "bytes32",
          "name": "newAdminRole",
          "type": "bytes32"
        }
      ],
      "name": "RoleAdminChanged",
      "type": "event"
    },
    {
      "anonymous": false,
      "inputs": [
        {
          "indexed": true,
          "internalType": "bytes32",
          "name": "role",
          "type": "bytes32"
        },
        {
          "indexed": true,
          "internalType": "address",
          "name": "account",
          "type": "address"
        },
        {
          "indexed": true,
          "internalType": "address",
          "name": "sender",
          "type": "address"
        }
      ],
      "name": "RoleGranted",
      "type": "event"
    },
    {
      "anonymous": false,
      "inputs": [
        {
          "indexed": true,
          "internalType": "bytes32",
          "name": "role",
          "type": "bytes32"
        },
        {
          "indexed": true,
          "internalType": "address",
          "name": "account",
          "type": "address"
        },
        {
          "indexed": true,
          "internalType": "address",
          "name": "sender",
          "type": "address"
        }
      ],
      "name": "RoleRevoked",
      "type": "event"
    },
    {
      "anonymous": false,
      "inputs": [
        {
          "components": [
            {
              "internalType": "uint256",
              "name": "productID",
              "type": "uint256"
            },
            {
              "internalType": "bytes32",
              "name": "productName",
              "type": "bytes32"
            },
            {
              "internalType": "address",
              "name": "Provider",
              "type": "address"
            },
            {
              "internalType": "bytes32",
              "name": "Retailer",
              "type": "bytes32"
            },
            {
              "internalType": "bool",
              "name": "isConfirmByRetailer",
              "type": "bool"
            }
          ],
          "indexed": false,
          "internalType": "struct TomatoCheck.Product",
          "name": "product",
          "type": "tuple"
        }
      ],
      "name": "productEvent",
      "type": "event"
    },
    {
      "anonymous": false,
      "inputs": [
        {
          "components": [
            {
              "internalType": "address",
              "name": "companyAddress",
              "type": "address"
            },
            {
              "internalType": "bytes32",
              "name": "companyName",
              "type": "bytes32"
            }
          ],
          "indexed": false,
          "internalType": "struct TomatoCheck.Company",
          "name": "company",
          "type": "tuple"
        }
      ],
      "name": "setCompanyEvent",
      "type": "event"
    },
    {
      "inputs": [],
      "name": "ADMIN_ROLE",
      "outputs": [
        {
          "internalType": "bytes32",
          "name": "",
          "type": "bytes32"
        }
      ],
      "stateMutability": "view",
      "type": "function"
    },
    {
      "inputs": [],
      "name": "COMPANY_ROLE",
      "outputs": [
        {
          "internalType": "bytes32",
          "name": "",
          "type": "bytes32"
        }
      ],
      "stateMutability": "view",
      "type": "function"
    },
    {
      "inputs": [],
      "name": "DEFAULT_ADMIN_ROLE",
      "outputs": [
        {
          "internalType": "bytes32",
          "name": "",
          "type": "bytes32"
        }
      ],
      "stateMutability": "view",
      "type": "function"
    },
    {
      "inputs": [],
      "name": "PRODUCER_ROLE",
      "outputs": [
        {
          "internalType": "bytes32",
          "name": "",
          "type": "bytes32"
        }
      ],
      "stateMutability": "view",
      "type": "function"
    },
    {
      "inputs": [],
      "name": "RETAILER_ROLE",
      "outputs": [
        {
          "internalType": "bytes32",
          "name": "",
          "type": "bytes32"
        }
      ],
      "stateMutability": "view",
      "type": "function"
    },
    {
      "inputs": [
        {
          "internalType": "uint256",
          "name": "productID",
          "type": "uint256"
        }
      ],
      "name": "acceptByRetailer",
      "outputs": [],
      "stateMutability": "nonpayable",
      "type": "function"
    },
    {
      "inputs": [
        {
          "internalType": "address",
          "name": "",
          "type": "address"
        }
      ],
      "name": "companies",
      "outputs": [
        {
          "internalType": "address",
          "name": "companyAddress",
          "type": "address"
        },
        {
          "internalType": "bytes32",
          "name": "companyName",
          "type": "bytes32"
        }
      ],
      "stateMutability": "view",
      "type": "function"
    },
    {
      "inputs": [
        {
          "internalType": "address",
          "name": "",
          "type": "address"
        },
        {
          "internalType": "uint256",
          "name": "",
          "type": "uint256"
        }
      ],
      "name": "companyProductIdMapping",
      "outputs": [
        {
          "internalType": "uint256",
          "name": "",
          "type": "uint256"
        }
      ],
      "stateMutability": "view",
      "type": "function"
    },
    {
      "inputs": [
        {
          "internalType": "address",
          "name": "",
          "type": "address"
        },
        {
          "internalType": "uint256",
          "name": "",
          "type": "uint256"
        }
      ],
      "name": "companyProductMapping",
      "outputs": [
        {
          "internalType": "uint256",
          "name": "productId",
          "type": "uint256"
        },
        {
          "internalType": "bytes32",
          "name": "ownerRole",
          "type": "bytes32"
        },
        {
          "internalType": "bool",
          "name": "isApproved",
          "type": "bool"
        }
      ],
      "stateMutability": "view",
      "type": "function"
    },
    {
      "inputs": [
        {
          "internalType": "uint256",
          "name": "productID",
          "type": "uint256"
        },
        {
          "internalType": "bytes32",
          "name": "productName",
          "type": "bytes32"
        },
        {
          "internalType": "address",
          "name": "Provider",
          "type": "address"
        },
        {
          "internalType": "bool",
          "name": "isConfirmByRetailer",
          "type": "bool"
        },
        {
          "internalType": "bytes32",
          "name": "Retailer",
          "type": "bytes32"
        }
      ],
      "name": "createProduct",
      "outputs": [],
      "stateMutability": "payable",
      "type": "function"
    },
    {
      "inputs": [
        {
          "internalType": "uint256",
          "name": "_productId",
          "type": "uint256"
        }
      ],
      "name": "getProductDairyByProductID",
      "outputs": [
        {
          "internalType": "uint256",
          "name": "",
          "type": "uint256"
        }
      ],
      "stateMutability": "view",
      "type": "function"
    },
    {
      "inputs": [
        {
          "internalType": "bytes32",
          "name": "role",
          "type": "bytes32"
        }
      ],
      "name": "getRoleAdmin",
      "outputs": [
        {
          "internalType": "bytes32",
          "name": "",
          "type": "bytes32"
        }
      ],
      "stateMutability": "view",
      "type": "function"
    },
    {
      "inputs": [
        {
          "internalType": "bytes32",
          "name": "role",
          "type": "bytes32"
        },
        {
          "internalType": "address",
          "name": "account",
          "type": "address"
        }
      ],
      "name": "grantRole",
      "outputs": [],
      "stateMutability": "nonpayable",
      "type": "function"
    },
    {
      "inputs": [
        {
          "internalType": "bytes32",
          "name": "role",
          "type": "bytes32"
        },
        {
          "internalType": "address",
          "name": "account",
          "type": "address"
        }
      ],
      "name": "hasRole",
      "outputs": [
        {
          "internalType": "bool",
          "name": "",
          "type": "bool"
        }
      ],
      "stateMutability": "view",
      "type": "function"
    },
    {
      "inputs": [
        {
          "internalType": "address",
          "name": "_address",
          "type": "address"
        }
      ],
      "name": "isCompany",
      "outputs": [
        {
          "internalType": "bool",
          "name": "",
          "type": "bool"
        }
      ],
      "stateMutability": "view",
      "type": "function"
    },
    {
      "inputs": [],
      "name": "isStopped",
      "outputs": [
        {
          "internalType": "bool",
          "name": "",
          "type": "bool"
        }
      ],
      "stateMutability": "view",
      "type": "function"
    },
    {
      "inputs": [
        {
          "internalType": "uint256",
          "name": "",
          "type": "uint256"
        },
        {
          "internalType": "uint256",
          "name": "",
          "type": "uint256"
        }
      ],
      "name": "productDairy",
      "outputs": [
        {
          "internalType": "uint256",
          "name": "timestamp",
          "type": "uint256"
        },
        {
          "internalType": "bytes32",
          "name": "message",
          "type": "bytes32"
        }
      ],
      "stateMutability": "view",
      "type": "function"
    },
    {
      "inputs": [
        {
          "internalType": "uint256",
          "name": "",
          "type": "uint256"
        }
      ],
      "name": "products",
      "outputs": [
        {
          "internalType": "uint256",
          "name": "productID",
          "type": "uint256"
        },
        {
          "internalType": "bytes32",
          "name": "productName",
          "type": "bytes32"
        },
        {
          "internalType": "address",
          "name": "Provider",
          "type": "address"
        },
        {
          "internalType": "bytes32",
          "name": "Retailer",
          "type": "bytes32"
        },
        {
          "internalType": "bool",
          "name": "isConfirmByRetailer",
          "type": "bool"
        }
      ],
      "stateMutability": "view",
      "type": "function"
    },
    {
      "inputs": [
        {
          "internalType": "bytes32",
          "name": "role",
          "type": "bytes32"
        },
        {
          "internalType": "address",
          "name": "account",
          "type": "address"
        }
      ],
      "name": "renounceRole",
      "outputs": [],
      "stateMutability": "nonpayable",
      "type": "function"
    },
    {
      "inputs": [],
      "name": "resumeContract",
      "outputs": [],
      "stateMutability": "nonpayable",
      "type": "function"
    },
    {
      "inputs": [
        {
          "internalType": "bytes32",
          "name": "role",
          "type": "bytes32"
        },
        {
          "internalType": "address",
          "name": "account",
          "type": "address"
        }
      ],
      "name": "revokeRole",
      "outputs": [],
      "stateMutability": "nonpayable",
      "type": "function"
    },
    {
      "inputs": [],
      "name": "selfDestruct",
      "outputs": [],
      "stateMutability": "nonpayable",
      "type": "function"
    },
    {
      "inputs": [
        {
          "internalType": "address",
          "name": "companyAddress",
          "type": "address"
        },
        {
          "internalType": "bytes32",
          "name": "companyName",
          "type": "bytes32"
        }
      ],
      "name": "setCompany",
      "outputs": [],
      "stateMutability": "payable",
      "type": "function"
    },
    {
      "inputs": [],
      "name": "stopContract",
      "outputs": [],
      "stateMutability": "nonpayable",
      "type": "function"
    },
    {
      "inputs": [
        {
          "internalType": "bytes4",
          "name": "interfaceId",
          "type": "bytes4"
        }
      ],
      "name": "supportsInterface",
      "outputs": [
        {
          "internalType": "bool",
          "name": "",
          "type": "bool"
        }
      ],
      "stateMutability": "view",
      "type": "function"
    },
    {
      "inputs": [
        {
          "internalType": "uint256",
          "name": "amount",
          "type": "uint256"
        }
      ],
      "name": "withdraw",
      "outputs": [],
      "stateMutability": "nonpayable",
      "type": "function"
    },
    {
      "inputs": [
        {
          "internalType": "uint256",
          "name": "_productId",
          "type": "uint256"
        },
        {
          "internalType": "bytes32",
          "name": "_message",
          "type": "bytes32"
        }
      ],
      "name": "writeProductDairy",
      "outputs": [],
      "stateMutability": "nonpayable",
      "type": "function"
    },
    {
      "stateMutability": "payable",
      "type": "receive"
    }
  ],
  "bytecode": "0x60806040526000600260006101000a81548160ff0219169083151502179055503480156200002c57600080fd5b50620000426000801b336200007a60201b60201c565b620000747fa49807205ce4d355092ef5a8a18f56e8913cf4a201fbe287825b095693c21775336200007a60201b60201c565b620001f3565b6200008c82826200009060201b60201c565b5050565b620000a282826200018160201b60201c565b6200017d57600160008084815260200190815260200160002060000160008373ffffffffffffffffffffffffffffffffffffffff1673ffffffffffffffffffffffffffffffffffffffff16815260200190815260200160002060006101000a81548160ff02191690831515021790555062000122620001eb60201b60201c565b73ffffffffffffffffffffffffffffffffffffffff168173ffffffffffffffffffffffffffffffffffffffff16837f2f8788117e7eff1d82e926ec794901d17c78024a50270940304540a733656f0d60405160405180910390a45b5050565b600080600084815260200190815260200160002060000160008373ffffffffffffffffffffffffffffffffffffffff1673ffffffffffffffffffffffffffffffffffffffff16815260200190815260200160002060009054906101000a900460ff16905092915050565b600033905090565b61253c80620002036000396000f3fe6080604052600436106101a05760003560e01c80637166edc5116100ec578063a0406ce21161008a578063c4bc5da511610064578063c4bc5da514610604578063cb3e1fe71461061b578063d547741f14610646578063d9a5f7fb1461066f576101a7565b8063a0406ce21461055f578063a217fddf1461059c578063add86eb0146105c7576101a7565b80637acc0b20116100c65780637acc0b20146104a15780637b59e4e5146104e257806391d148541461050b5780639cb8a26a14610548576101a7565b80637166edc51461041d578063729a914d1461043957806375b238fc14610476576101a7565b80632e1a7d4d1161015957806336568abe1161013357806336568abe146103625780633f683b6a1461038b5780634e470458146103b6578063575553f7146103f4576101a7565b80632e1a7d4d146102d25780632f2ff15d146102fb578063355e6ce814610324576101a7565b806301ffc9a7146101ac57806312253a6c146101e957806316fc8434146102005780631c9ee11a1461023f5780632115e7bf1461026a578063248a9ca314610295576101a7565b366101a757005b600080fd5b3480156101b857600080fd5b506101d360048036038101906101ce9190611996565b61068b565b6040516101e09190611e81565b60405180910390f35b3480156101f557600080fd5b506101fe610705565b005b34801561020c57600080fd5b50610227600480360381019061022291906118f5565b610755565b60405161023693929190612061565b60405180910390f35b34801561024b57600080fd5b50610254610799565b6040516102619190611e9c565b60405180910390f35b34801561027657600080fd5b5061027f6107bd565b60405161028c9190611e9c565b60405180910390f35b3480156102a157600080fd5b506102bc60048036038101906102b79190611931565b6107e1565b6040516102c99190611e9c565b60405180910390f35b3480156102de57600080fd5b506102f960048036038101906102f491906119bf565b610800565b005b34801561030757600080fd5b50610322600480360381019061031d919061195a565b610959565b005b34801561033057600080fd5b5061034b60048036038101906103469190611890565b610982565b604051610359929190611e58565b60405180910390f35b34801561036e57600080fd5b506103896004803603810190610384919061195a565b6109c6565b005b34801561039757600080fd5b506103a0610a49565b6040516103ad9190611e81565b60405180910390f35b3480156103c257600080fd5b506103dd60048036038101906103d89190611a9b565b610a5c565b6040516103eb929190611fe5565b60405180910390f35b34801561040057600080fd5b5061041b600480360381019061041691906119e8565b610a9d565b005b610437600480360381019061043291906118b9565b610b41565b005b34801561044557600080fd5b50610460600480360381019061045b91906119bf565b610cce565b60405161046d9190611fca565b60405180910390f35b34801561048257600080fd5b5061048b610cee565b6040516104989190611e9c565b60405180910390f35b3480156104ad57600080fd5b506104c860048036038101906104c391906119bf565b610d12565b6040516104d995949392919061200e565b60405180910390f35b3480156104ee57600080fd5b50610509600480360381019061050491906119bf565b610d75565b005b34801561051757600080fd5b50610532600480360381019061052d919061195a565b610ed3565b60405161053f9190611e81565b60405180910390f35b34801561055457600080fd5b5061055d610f3d565b005b34801561056b57600080fd5b5061058660048036038101906105819190611890565b610fa1565b6040516105939190611e81565b60405180910390f35b3480156105a857600080fd5b506105b1610fd4565b6040516105be9190611e9c565b60405180910390f35b3480156105d357600080fd5b506105ee60048036038101906105e991906118f5565b610fdb565b6040516105fb9190611fca565b60405180910390f35b34801561061057600080fd5b5061061961100c565b005b34801561062757600080fd5b5061063061105c565b60405161063d9190611e9c565b60405180910390f35b34801561065257600080fd5b5061066d6004803603810190610668919061195a565b611080565b005b61068960048036038101906106849190611a24565b6110a9565b005b60007f7965db0b000000000000000000000000000000000000000000000000000000007bffffffffffffffffffffffffffffffffffffffffffffffffffffffff1916827bffffffffffffffffffffffffffffffffffffffffffffffffffffffff191614806106fe57506106fd8261125d565b5b9050919050565b7fa49807205ce4d355092ef5a8a18f56e8913cf4a201fbe287825b095693c21775610737816107326112c7565b6112cf565b6001600260006101000a81548160ff02191690831515021790555050565b6006602052816000526040600020602052806000526040600020600091509150508060000154908060010154908060020160009054906101000a900460ff16905083565b7f9e1688b53537f356172ce07f39e129155063957163c5f9462d4d9e55b228b06c81565b7f2a5f906c256a5d799494fcd066e1f6c077689de1cdb65052a1624de4bace99bf81565b6000806000838152602001908152602001600020600101549050919050565b7fa49807205ce4d355092ef5a8a18f56e8913cf4a201fbe287825b095693c217756108328161082d6112c7565b6112cf565b61085c7fa49807205ce4d355092ef5a8a18f56e8913cf4a201fbe287825b095693c2177533610ed3565b61086557600080fd5b814710156108a8576040517f08c379a000000000000000000000000000000000000000000000000000000000815260040161089f90611ef9565b60405180910390fd5b60003373ffffffffffffffffffffffffffffffffffffffff16836040516108ce90611e09565b60006040518083038185875af1925050503d806000811461090b576040519150601f19603f3d011682016040523d82523d6000602084013e610910565b606091505b5050905080610954576040517f08c379a000000000000000000000000000000000000000000000000000000000815260040161094b90611f39565b60405180910390fd5b505050565b610962826107e1565b6109738161096e6112c7565b6112cf565b61097d838361136c565b505050565b60036020528060005260406000206000915090508060000160009054906101000a900473ffffffffffffffffffffffffffffffffffffffff16908060010154905082565b6109ce6112c7565b73ffffffffffffffffffffffffffffffffffffffff168173ffffffffffffffffffffffffffffffffffffffff1614610a3b576040517f08c379a0000000000000000000000000000000000000000000000000000000008152600401610a3290611f59565b60405180910390fd5b610a45828261144c565b5050565b600260009054906101000a900460ff1681565b60016020528160005260406000208181548110610a7857600080fd5b9060005260206000209060020201600091509150508060000154908060010154905082565b7f9e1688b53537f356172ce07f39e129155063957163c5f9462d4d9e55b228b06c610acf81610aca6112c7565b6112cf565b60006040518060400160405280428152602001848152509050600160008581526020019081526020016000208190806001815401808255809150506001900390600052602060002090600202016000909190919091506000820151816000015560208201518160010155505050505050565b600260009054906101000a900460ff1615610b5b57600080fd5b662386f26fc10000341015610ba5576040517f08c379a0000000000000000000000000000000000000000000000000000000008152600401610b9c90611ef9565b60405180910390fd5b600060405180604001604052808473ffffffffffffffffffffffffffffffffffffffff168152602001838152509050610bfe7f9e1688b53537f356172ce07f39e129155063957163c5f9462d4d9e55b228b06c8461136c565b80600360008573ffffffffffffffffffffffffffffffffffffffff1673ffffffffffffffffffffffffffffffffffffffff16815260200190815260200160002060008201518160000160006101000a81548173ffffffffffffffffffffffffffffffffffffffff021916908373ffffffffffffffffffffffffffffffffffffffff160217905550602082015181600101559050507f8a07c42032bbcf5858e4d91c0f29a46b32c52a52d82e93a680a9233aeaebe41281604051610cc19190611f79565b60405180910390a1505050565b600060016000838152602001908152602001600020805490509050919050565b7fa49807205ce4d355092ef5a8a18f56e8913cf4a201fbe287825b095693c2177581565b60046020528060005260406000206000915090508060000154908060010154908060020160009054906101000a900473ffffffffffffffffffffffffffffffffffffffff16908060030154908060040160009054906101000a900460ff16905085565b7f9e1688b53537f356172ce07f39e129155063957163c5f9462d4d9e55b228b06c610da781610da26112c7565b6112cf565b81600015156004600083815260200190815260200160002060040160009054906101000a900460ff16151514610e12576040517f08c379a0000000000000000000000000000000000000000000000000000000008152600401610e0990611f19565b60405180910390fd5b600260009054906101000a900460ff1615610e2c57600080fd5b60016004600085815260200190815260200160002060040160006101000a81548160ff021916908315150217905550610e85837f52657461696c6572206163636570742070726f64756374000000000000000000610a9d565b7f7a68e85646e6cf4b5a14ee424f476bee57aa92f32f43b84aa308d6b481f24c0a60046000858152602001908152602001600020604051610ec69190611faf565b60405180910390a1505050565b600080600084815260200190815260200160002060000160008373ffffffffffffffffffffffffffffffffffffffff1673ffffffffffffffffffffffffffffffffffffffff16815260200190815260200160002060009054906101000a900460ff16905092915050565b600260009054906101000a900460ff16610f5657600080fd5b7fa49807205ce4d355092ef5a8a18f56e8913cf4a201fbe287825b095693c21775610f8881610f836112c7565b6112cf565b3373ffffffffffffffffffffffffffffffffffffffff16ff5b6000610fcd7f9e1688b53537f356172ce07f39e129155063957163c5f9462d4d9e55b228b06c83610ed3565b9050919050565b6000801b81565b60056020528160005260406000208181548110610ff757600080fd5b90600052602060002001600091509150505481565b7fa49807205ce4d355092ef5a8a18f56e8913cf4a201fbe287825b095693c2177561103e816110396112c7565b6112cf565b6000600260006101000a81548160ff02191690831515021790555050565b7f8eb467f061ca67f42a2d2ca4a346fc9fb645efc0ba75056ee9f71c3a0ccc10a881565b611089826107e1565b61109a816110956112c7565b6112cf565b6110a4838361144c565b505050565b7f9e1688b53537f356172ce07f39e129155063957163c5f9462d4d9e55b228b06c6110db816110d66112c7565b6112cf565b600260009054906101000a900460ff16156110f557600080fd5b655af3107a400034101561113e576040517f08c379a000000000000000000000000000000000000000000000000000000000815260040161113590611ef9565b60405180910390fd5b60006040518060a001604052808881526020018781526020018673ffffffffffffffffffffffffffffffffffffffff16815260200184815260200185151581525090508060046000898152602001908152602001600020600082015181600001556020820151816001015560408201518160020160006101000a81548173ffffffffffffffffffffffffffffffffffffffff021916908373ffffffffffffffffffffffffffffffffffffffff1602179055506060820151816003015560808201518160040160006101000a81548160ff0219169083151502179055509050507f7a68e85646e6cf4b5a14ee424f476bee57aa92f32f43b84aa308d6b481f24c0a8160405161124c9190611f94565b60405180910390a150505050505050565b60007f01ffc9a7000000000000000000000000000000000000000000000000000000007bffffffffffffffffffffffffffffffffffffffffffffffffffffffff1916827bffffffffffffffffffffffffffffffffffffffffffffffffffffffff1916149050919050565b600033905090565b6112d98282610ed3565b611368576112fe8173ffffffffffffffffffffffffffffffffffffffff16601461152d565b61130c8360001c602061152d565b60405160200161131d929190611e1e565b6040516020818303038152906040526040517f08c379a000000000000000000000000000000000000000000000000000000000815260040161135f9190611eb7565b60405180910390fd5b5050565b6113768282610ed3565b61144857600160008084815260200190815260200160002060000160008373ffffffffffffffffffffffffffffffffffffffff1673ffffffffffffffffffffffffffffffffffffffff16815260200190815260200160002060006101000a81548160ff0219169083151502179055506113ed6112c7565b73ffffffffffffffffffffffffffffffffffffffff168173ffffffffffffffffffffffffffffffffffffffff16837f2f8788117e7eff1d82e926ec794901d17c78024a50270940304540a733656f0d60405160405180910390a45b5050565b6114568282610ed3565b1561152957600080600084815260200190815260200160002060000160008373ffffffffffffffffffffffffffffffffffffffff1673ffffffffffffffffffffffffffffffffffffffff16815260200190815260200160002060006101000a81548160ff0219169083151502179055506114ce6112c7565b73ffffffffffffffffffffffffffffffffffffffff168173ffffffffffffffffffffffffffffffffffffffff16837ff6391f5c32d9c69d2a47ea670b442974b53935d1edc7fd64eb21e047a839171b60405160405180910390a45b5050565b6060600060028360026115409190612120565b61154a91906120ca565b67ffffffffffffffff811115611589577f4e487b7100000000000000000000000000000000000000000000000000000000600052604160045260246000fd5b6040519080825280601f01601f1916602001820160405280156115bb5781602001600182028036833780820191505090505b5090507f300000000000000000000000000000000000000000000000000000000000000081600081518110611619577f4e487b7100000000000000000000000000000000000000000000000000000000600052603260045260246000fd5b60200101907effffffffffffffffffffffffffffffffffffffffffffffffffffffffffffff1916908160001a9053507f7800000000000000000000000000000000000000000000000000000000000000816001815181106116a3577f4e487b7100000000000000000000000000000000000000000000000000000000600052603260045260246000fd5b60200101907effffffffffffffffffffffffffffffffffffffffffffffffffffffffffffff1916908160001a905350600060018460026116e39190612120565b6116ed91906120ca565b90505b60018111156117d9577f3031323334353637383961626364656600000000000000000000000000000000600f861660108110611755577f4e487b7100000000000000000000000000000000000000000000000000000000600052603260045260246000fd5b1a60f81b828281518110611792577f4e487b7100000000000000000000000000000000000000000000000000000000600052603260045260246000fd5b60200101907effffffffffffffffffffffffffffffffffffffffffffffffffffffffffffff1916908160001a905350600485901c9450806117d29061226c565b90506116f0565b506000841461181d576040517f08c379a000000000000000000000000000000000000000000000000000000000815260040161181490611ed9565b60405180910390fd5b8091505092915050565b60008135905061183681612493565b92915050565b60008135905061184b816124aa565b92915050565b600081359050611860816124c1565b92915050565b600081359050611875816124d8565b92915050565b60008135905061188a816124ef565b92915050565b6000602082840312156118a257600080fd5b60006118b084828501611827565b91505092915050565b600080604083850312156118cc57600080fd5b60006118da85828601611827565b92505060206118eb85828601611851565b9150509250929050565b6000806040838503121561190857600080fd5b600061191685828601611827565b92505060206119278582860161187b565b9150509250929050565b60006020828403121561194357600080fd5b600061195184828501611851565b91505092915050565b6000806040838503121561196d57600080fd5b600061197b85828601611851565b925050602061198c85828601611827565b9150509250929050565b6000602082840312156119a857600080fd5b60006119b684828501611866565b91505092915050565b6000602082840312156119d157600080fd5b60006119df8482850161187b565b91505092915050565b600080604083850312156119fb57600080fd5b6000611a098582860161187b565b9250506020611a1a85828601611851565b9150509250929050565b600080600080600060a08688031215611a3c57600080fd5b6000611a4a8882890161187b565b9550506020611a5b88828901611851565b9450506040611a6c88828901611827565b9350506060611a7d8882890161183c565b9250506080611a8e88828901611851565b9150509295509295909350565b60008060408385031215611aae57600080fd5b6000611abc8582860161187b565b9250506020611acd8582860161187b565b9150509250929050565b611ae0816121bb565b82525050565b611aef816121bb565b82525050565b611afe816121cd565b82525050565b611b0d816121cd565b82525050565b611b1c816121d9565b82525050565b611b2b816121d9565b82525050565b6000611b3c82612098565b611b4681856120ae565b9350611b56818560208601612239565b611b5f8161232d565b840191505092915050565b6000611b7582612098565b611b7f81856120bf565b9350611b8f818560208601612239565b80840191505092915050565b6000611ba86020836120ae565b9150611bb38261234b565b602082019050919050565b6000611bcb600e836120ae565b9150611bd682612374565b602082019050919050565b6000611bee601f836120ae565b9150611bf98261239d565b602082019050919050565b6000611c116000836120a3565b9150611c1c826123c6565b600082019050919050565b6000611c346010836120ae565b9150611c3f826123c9565b602082019050919050565b6000611c576017836120bf565b9150611c62826123f2565b601782019050919050565b6000611c7a6011836120bf565b9150611c858261241b565b601182019050919050565b6000611c9d602f836120ae565b9150611ca882612444565b604082019050919050565b604082016000820151611cc96000850182611ad7565b506020820151611cdc6020850182611b13565b50505050565b60a082016000820151611cf86000850182611deb565b506020820151611d0b6020850182611b13565b506040820151611d1e6040850182611ad7565b506060820151611d316060850182611b13565b506080820151611d446080850182611af5565b50505050565b60a082016000808301549050611d5f816122e4565b611d6c6000860182611deb565b5060018301549050611d7d816122ca565b611d8a6020860182611b13565b5060028301549050611d9b81612296565b611da86040860182611ad7565b5060038301549050611db9816122ca565b611dc66060860182611b13565b5060048301549050611dd7816122b0565b611de46080860182611af5565b5050505050565b611df48161222f565b82525050565b611e038161222f565b82525050565b6000611e1482611c04565b9150819050919050565b6000611e2982611c4a565b9150611e358285611b6a565b9150611e4082611c6d565b9150611e4c8284611b6a565b91508190509392505050565b6000604082019050611e6d6000830185611ae6565b611e7a6020830184611b22565b9392505050565b6000602082019050611e966000830184611b04565b92915050565b6000602082019050611eb16000830184611b22565b92915050565b60006020820190508181036000830152611ed18184611b31565b905092915050565b60006020820190508181036000830152611ef281611b9b565b9050919050565b60006020820190508181036000830152611f1281611bbe565b9050919050565b60006020820190508181036000830152611f3281611be1565b9050919050565b60006020820190508181036000830152611f5281611c27565b9050919050565b60006020820190508181036000830152611f7281611c90565b9050919050565b6000604082019050611f8e6000830184611cb3565b92915050565b600060a082019050611fa96000830184611ce2565b92915050565b600060a082019050611fc46000830184611d4a565b92915050565b6000602082019050611fdf6000830184611dfa565b92915050565b6000604082019050611ffa6000830185611dfa565b6120076020830184611b22565b9392505050565b600060a0820190506120236000830188611dfa565b6120306020830187611b22565b61203d6040830186611ae6565b61204a6060830185611b22565b6120576080830184611b04565b9695505050505050565b60006060820190506120766000830186611dfa565b6120836020830185611b22565b6120906040830184611b04565b949350505050565b600081519050919050565b600081905092915050565b600082825260208201905092915050565b600081905092915050565b60006120d58261222f565b91506120e08361222f565b9250827fffffffffffffffffffffffffffffffffffffffffffffffffffffffffffffffff03821115612115576121146122fe565b5b828201905092915050565b600061212b8261222f565b91506121368361222f565b9250817fffffffffffffffffffffffffffffffffffffffffffffffffffffffffffffffff048311821515161561216f5761216e6122fe565b5b828202905092915050565b600073ffffffffffffffffffffffffffffffffffffffff82169050919050565b600060ff82169050919050565b6000819050919050565b6000819050919050565b60006121c68261220f565b9050919050565b60008115159050919050565b6000819050919050565b60007fffffffff0000000000000000000000000000000000000000000000000000000082169050919050565b600073ffffffffffffffffffffffffffffffffffffffff82169050919050565b6000819050919050565b60005b8381101561225757808201518184015260208101905061223c565b83811115612266576000848401525b50505050565b60006122778261222f565b9150600082141561228b5761228a6122fe565b5b600182039050919050565b60006122a96122a48361233e565b61217a565b9050919050565b60006122c36122be8361233e565b61219a565b9050919050565b60006122dd6122d88361233e565b6121a7565b9050919050565b60006122f76122f28361233e565b6121b1565b9050919050565b7f4e487b7100000000000000000000000000000000000000000000000000000000600052601160045260246000fd5b6000601f19601f8301169050919050565b60008160001c9050919050565b7f537472696e67733a20686578206c656e67746820696e73756666696369656e74600082015250565b7f496e76616c696420616d6f756e74000000000000000000000000000000000000600082015250565b7f546869732070726f6475637420616c726561647920636f6e6669726d65642100600082015250565b50565b7f5472616e73666572206661696c65642e00000000000000000000000000000000600082015250565b7f416363657373436f6e74726f6c3a206163636f756e7420000000000000000000600082015250565b7f206973206d697373696e6720726f6c6520000000000000000000000000000000600082015250565b7f416363657373436f6e74726f6c3a2063616e206f6e6c792072656e6f756e636560008201527f20726f6c657320666f722073656c660000000000000000000000000000000000602082015250565b61249c816121bb565b81146124a757600080fd5b50565b6124b3816121cd565b81146124be57600080fd5b50565b6124ca816121d9565b81146124d557600080fd5b50565b6124e1816121e3565b81146124ec57600080fd5b50565b6124f88161222f565b811461250357600080fd5b5056fea2646970667358221220974e3c23be6639170dd225fc233648003774f431c1bf55cf15f985c3d6c365b964736f6c63430008040033",
  "immutableReferences": {},
  "source": "// SPDX-License-Identifier: MIT\r\npragma solidity ^0.8.4;\r\nimport \"@openzeppelin/contracts/token/ERC721/ERC721.sol\";\r\nimport \"./TomatoChain.sol\";\r\n\r\ncontract ProductTrace is TomatoCheck{\r\n    bytes32 public constant PRODUCER_ROLE = keccak256(\"PRODUCER_ROLE\");\r\n    bytes32 public constant RETAILER_ROLE = keccak256(\"RETAILER_ROLE\");\r\n    struct CompanyProduct{\r\n        uint productId;\r\n        bytes32 ownerRole;\r\n        bool isApproved;\r\n    }\r\n\r\n    mapping(address => uint[]) public companyProductIdMapping;\r\n    mapping(address => mapping(uint => CompanyProduct)) public companyProductMapping;\r\n\r\n\r\n    constructor() TomatoCheck() {}\r\n}",
  "sourcePath": "D:\\HomeWork\\blockchain\\tomato-chain\\contracts\\ProductCirculation.sol",
  "compiler": {
    "name": "solc",
    "version": "0.8.4+commit.c7e474f2.Emscripten.clang"
  },
  "schemaVersion": "3.4.7",
  "updatedAt": "2022-05-27T10:44:27.190Z",
  "devdoc": {
    "kind": "dev",
    "methods": {
      "getRoleAdmin(bytes32)": {
        "details": "Returns the admin role that controls `role`. See {grantRole} and {revokeRole}. To change a role's admin, use {_setRoleAdmin}."
      },
      "grantRole(bytes32,address)": {
        "details": "Grants `role` to `account`. If `account` had not been already granted `role`, emits a {RoleGranted} event. Requirements: - the caller must have ``role``'s admin role."
      },
      "hasRole(bytes32,address)": {
        "details": "Returns `true` if `account` has been granted `role`."
      },
      "renounceRole(bytes32,address)": {
        "details": "Revokes `role` from the calling account. Roles are often managed via {grantRole} and {revokeRole}: this function's purpose is to provide a mechanism for accounts to lose their privileges if they are compromised (such as when a trusted device is misplaced). If the calling account had been revoked `role`, emits a {RoleRevoked} event. Requirements: - the caller must be `account`."
      },
      "revokeRole(bytes32,address)": {
        "details": "Revokes `role` from `account`. If `account` had been granted `role`, emits a {RoleRevoked} event. Requirements: - the caller must have ``role``'s admin role."
      },
      "supportsInterface(bytes4)": {
        "details": "See {IERC165-supportsInterface}."
      }
    },
    "version": 1
  },
  "userdoc": {
    "kind": "user",
    "methods": {},
    "version": 1
  }
}