{
  "contractName": "TomatoCheck",
  "abi": [
    {
      "inputs": [],
      "stateMutability": "nonpayable",
      "type": "constructor"
    },
    {
      "anonymous": false,
      "inputs": [
        {
          "indexed": true,
          "internalType": "bytes32",
          "name": "role",
          "type": "bytes32"
        },
        {
          "indexed": true,
          "internalType": "bytes32",
          "name": "previousAdminRole",
          "type": "bytes32"
        },
        {
          "indexed": true,
          "internalType": "bytes32",
          "name": "newAdminRole",
          "type": "bytes32"
        }
      ],
      "name": "RoleAdminChanged",
      "type": "event"
    },
    {
      "anonymous": false,
      "inputs": [
        {
          "indexed": true,
          "internalType": "bytes32",
          "name": "role",
          "type": "bytes32"
        },
        {
          "indexed": true,
          "internalType": "address",
          "name": "account",
          "type": "address"
        },
        {
          "indexed": true,
          "internalType": "address",
          "name": "sender",
          "type": "address"
        }
      ],
      "name": "RoleGranted",
      "type": "event"
    },
    {
      "anonymous": false,
      "inputs": [
        {
          "indexed": true,
          "internalType": "bytes32",
          "name": "role",
          "type": "bytes32"
        },
        {
          "indexed": true,
          "internalType": "address",
          "name": "account",
          "type": "address"
        },
        {
          "indexed": true,
          "internalType": "address",
          "name": "sender",
          "type": "address"
        }
      ],
      "name": "RoleRevoked",
      "type": "event"
    },
    {
      "anonymous": false,
      "inputs": [
        {
          "components": [
            {
              "internalType": "uint256",
              "name": "productID",
              "type": "uint256"
            },
            {
              "internalType": "string",
              "name": "productName",
              "type": "string"
            },
            {
              "internalType": "address",
              "name": "Provider",
              "type": "address"
            },
            {
              "internalType": "string",
              "name": "Retailer",
              "type": "string"
            },
            {
              "internalType": "bool",
              "name": "isConfirmByRetailer",
              "type": "bool"
            }
          ],
          "indexed": false,
          "internalType": "struct TomatoCheck.Product",
          "name": "product",
          "type": "tuple"
        }
      ],
      "name": "productEvent",
      "type": "event"
    },
    {
      "anonymous": false,
      "inputs": [
        {
          "components": [
            {
              "internalType": "address",
              "name": "companyAddress",
              "type": "address"
            },
            {
              "internalType": "string",
              "name": "companyName",
              "type": "string"
            }
          ],
          "indexed": false,
          "internalType": "struct TomatoCheck.Company",
          "name": "company",
          "type": "tuple"
        }
      ],
      "name": "setCompanyEvent",
      "type": "event"
    },
    {
      "inputs": [],
      "name": "ADMIN_ROLE",
      "outputs": [
        {
          "internalType": "bytes32",
          "name": "",
          "type": "bytes32"
        }
      ],
      "stateMutability": "view",
      "type": "function",
      "constant": true
    },
    {
      "inputs": [],
      "name": "COMPANY_ROLE",
      "outputs": [
        {
          "internalType": "bytes32",
          "name": "",
          "type": "bytes32"
        }
      ],
      "stateMutability": "view",
      "type": "function",
      "constant": true
    },
    {
      "inputs": [],
      "name": "DEFAULT_ADMIN_ROLE",
      "outputs": [
        {
          "internalType": "bytes32",
          "name": "",
          "type": "bytes32"
        }
      ],
      "stateMutability": "view",
      "type": "function",
      "constant": true
    },
    {
      "inputs": [
        {
          "internalType": "address",
          "name": "",
          "type": "address"
        }
      ],
      "name": "companies",
      "outputs": [
        {
          "internalType": "address",
          "name": "companyAddress",
          "type": "address"
        },
        {
          "internalType": "string",
          "name": "companyName",
          "type": "string"
        }
      ],
      "stateMutability": "view",
      "type": "function",
      "constant": true
    },
    {
      "inputs": [
        {
          "internalType": "bytes32",
          "name": "role",
          "type": "bytes32"
        }
      ],
      "name": "getRoleAdmin",
      "outputs": [
        {
          "internalType": "bytes32",
          "name": "",
          "type": "bytes32"
        }
      ],
      "stateMutability": "view",
      "type": "function",
      "constant": true
    },
    {
      "inputs": [
        {
          "internalType": "bytes32",
          "name": "role",
          "type": "bytes32"
        },
        {
          "internalType": "address",
          "name": "account",
          "type": "address"
        }
      ],
      "name": "grantRole",
      "outputs": [],
      "stateMutability": "nonpayable",
      "type": "function"
    },
    {
      "inputs": [
        {
          "internalType": "bytes32",
          "name": "role",
          "type": "bytes32"
        },
        {
          "internalType": "address",
          "name": "account",
          "type": "address"
        }
      ],
      "name": "hasRole",
      "outputs": [
        {
          "internalType": "bool",
          "name": "",
          "type": "bool"
        }
      ],
      "stateMutability": "view",
      "type": "function",
      "constant": true
    },
    {
      "inputs": [],
      "name": "isStopped",
      "outputs": [
        {
          "internalType": "bool",
          "name": "",
          "type": "bool"
        }
      ],
      "stateMutability": "view",
      "type": "function",
      "constant": true
    },
    {
      "inputs": [
        {
          "internalType": "uint256",
          "name": "",
          "type": "uint256"
        },
        {
          "internalType": "uint256",
          "name": "",
          "type": "uint256"
        }
      ],
      "name": "productDairy",
      "outputs": [
        {
          "internalType": "uint256",
          "name": "timestamp",
          "type": "uint256"
        },
        {
          "internalType": "string",
          "name": "message",
          "type": "string"
        }
      ],
      "stateMutability": "view",
      "type": "function",
      "constant": true
    },
    {
      "inputs": [
        {
          "internalType": "uint256",
          "name": "",
          "type": "uint256"
        }
      ],
      "name": "products",
      "outputs": [
        {
          "internalType": "uint256",
          "name": "productID",
          "type": "uint256"
        },
        {
          "internalType": "string",
          "name": "productName",
          "type": "string"
        },
        {
          "internalType": "address",
          "name": "Provider",
          "type": "address"
        },
        {
          "internalType": "string",
          "name": "Retailer",
          "type": "string"
        },
        {
          "internalType": "bool",
          "name": "isConfirmByRetailer",
          "type": "bool"
        }
      ],
      "stateMutability": "view",
      "type": "function",
      "constant": true
    },
    {
      "inputs": [
        {
          "internalType": "bytes32",
          "name": "role",
          "type": "bytes32"
        },
        {
          "internalType": "address",
          "name": "account",
          "type": "address"
        }
      ],
      "name": "renounceRole",
      "outputs": [],
      "stateMutability": "nonpayable",
      "type": "function"
    },
    {
      "inputs": [
        {
          "internalType": "bytes32",
          "name": "role",
          "type": "bytes32"
        },
        {
          "internalType": "address",
          "name": "account",
          "type": "address"
        }
      ],
      "name": "revokeRole",
      "outputs": [],
      "stateMutability": "nonpayable",
      "type": "function"
    },
    {
      "inputs": [
        {
          "internalType": "bytes4",
          "name": "interfaceId",
          "type": "bytes4"
        }
      ],
      "name": "supportsInterface",
      "outputs": [
        {
          "internalType": "bool",
          "name": "",
          "type": "bool"
        }
      ],
      "stateMutability": "view",
      "type": "function",
      "constant": true
    },
    {
      "stateMutability": "payable",
      "type": "receive",
      "payable": true
    },
    {
      "inputs": [
        {
          "internalType": "uint256",
          "name": "productID",
          "type": "uint256"
        }
      ],
      "name": "acceptByRetailer",
      "outputs": [],
      "stateMutability": "nonpayable",
      "type": "function"
    },
    {
      "inputs": [
        {
          "internalType": "uint256",
          "name": "productID",
          "type": "uint256"
        },
        {
          "internalType": "string",
          "name": "productName",
          "type": "string"
        },
        {
          "internalType": "address",
          "name": "Provider",
          "type": "address"
        },
        {
          "internalType": "bool",
          "name": "isConfirmByRetailer",
          "type": "bool"
        },
        {
          "internalType": "string",
          "name": "Retailer",
          "type": "string"
        }
      ],
      "name": "createProduct",
      "outputs": [],
      "stateMutability": "payable",
      "type": "function",
      "payable": true
    },
    {
      "inputs": [
        {
          "internalType": "uint256",
          "name": "_productId",
          "type": "uint256"
        },
        {
          "internalType": "string",
          "name": "_message",
          "type": "string"
        }
      ],
      "name": "writeProductDairy",
      "outputs": [],
      "stateMutability": "nonpayable",
      "type": "function"
    },
    {
      "inputs": [
        {
          "internalType": "uint256",
          "name": "_productId",
          "type": "uint256"
        }
      ],
      "name": "getProductDairyByProductID",
      "outputs": [
        {
          "internalType": "uint256",
          "name": "",
          "type": "uint256"
        }
      ],
      "stateMutability": "view",
      "type": "function",
      "constant": true
    },
    {
      "inputs": [
        {
          "internalType": "address",
          "name": "_address",
          "type": "address"
        }
      ],
      "name": "isCompany",
      "outputs": [
        {
          "internalType": "bool",
          "name": "",
          "type": "bool"
        }
      ],
      "stateMutability": "view",
      "type": "function",
      "constant": true
    },
    {
      "inputs": [
        {
          "internalType": "address",
          "name": "companyAddress",
          "type": "address"
        },
        {
          "internalType": "string",
          "name": "companyName",
          "type": "string"
        }
      ],
      "name": "setCompany",
      "outputs": [],
      "stateMutability": "payable",
      "type": "function",
      "payable": true
    },
    {
      "inputs": [],
      "name": "selfDestruct",
      "outputs": [],
      "stateMutability": "nonpayable",
      "type": "function"
    },
    {
      "inputs": [],
      "name": "stopContract",
      "outputs": [],
      "stateMutability": "nonpayable",
      "type": "function"
    },
    {
      "inputs": [],
      "name": "resumeContract",
      "outputs": [],
      "stateMutability": "nonpayable",
      "type": "function"
    },
    {
      "inputs": [
        {
          "internalType": "uint256",
          "name": "amount",
          "type": "uint256"
        }
      ],
      "name": "withdraw",
      "outputs": [],
      "stateMutability": "nonpayable",
      "type": "function"
    }
  ],
  "bytecode": "0x60806040526000600260006101000a81548160ff0219169083151502179055503480156200002c57600080fd5b50620000426000801b336200007a60201b60201c565b620000747fa49807205ce4d355092ef5a8a18f56e8913cf4a201fbe287825b095693c21775336200007a60201b60201c565b620001f3565b6200008c82826200009060201b60201c565b5050565b620000a282826200018160201b60201c565b6200017d57600160008084815260200190815260200160002060000160008373ffffffffffffffffffffffffffffffffffffffff1673ffffffffffffffffffffffffffffffffffffffff16815260200190815260200160002060006101000a81548160ff02191690831515021790555062000122620001eb60201b60201c565b73ffffffffffffffffffffffffffffffffffffffff168173ffffffffffffffffffffffffffffffffffffffff16837f2f8788117e7eff1d82e926ec794901d17c78024a50270940304540a733656f0d60405160405180910390a45b5050565b600080600084815260200190815260200160002060000160008373ffffffffffffffffffffffffffffffffffffffff1673ffffffffffffffffffffffffffffffffffffffff16815260200190815260200160002060009054906101000a900460ff16905092915050565b600033905090565b6128ed80620002036000396000f3fe6080604052600436106101445760003560e01c8063729a914d116100b65780639cb8a26a1161006f5780639cb8a26a14610475578063a0406ce21461048c578063a217fddf146104c9578063c4bc5da5146104f4578063d547741f1461050b578063de192216146105345761014b565b8063729a914d1461034a57806375b238fc14610387578063762cbfb0146103b25780637acc0b20146103ce5780637b59e4e51461040f57806391d14854146104385761014b565b80632e1a7d4d116101085780632e1a7d4d146102285780632f2ff15d14610251578063355e6ce81461027a57806336568abe146102b85780633f683b6a146102e15780634e4704581461030c5761014b565b806301ffc9a71461015057806312253a6c1461018d57806316ca4389146101a45780631c9ee11a146101c0578063248a9ca3146101eb5761014b565b3661014b57005b600080fd5b34801561015c57600080fd5b5061017760048036038101906101729190611b13565b61055d565b6040516101849190612117565b60405180910390f35b34801561019957600080fd5b506101a26105d7565b005b6101be60048036038101906101b99190611a5a565b610627565b005b3480156101cc57600080fd5b506101d56107c7565b6040516101e29190612132565b60405180910390f35b3480156101f757600080fd5b50610212600480360381019061020d9190611aae565b6107eb565b60405161021f9190612132565b60405180910390f35b34801561023457600080fd5b5061024f600480360381019061024a9190611b3c565b61080a565b005b34801561025d57600080fd5b5061027860048036038101906102739190611ad7565b610963565b005b34801561028657600080fd5b506102a1600480360381019061029c9190611a31565b61098c565b6040516102af9291906120e7565b60405180910390f35b3480156102c457600080fd5b506102df60048036038101906102da9190611ad7565b610a58565b005b3480156102ed57600080fd5b506102f6610adb565b6040516103039190612117565b60405180910390f35b34801561031857600080fd5b50610333600480360381019061032e9190611c60565b610aee565b604051610341929190612290565b60405180910390f35b34801561035657600080fd5b50610371600480360381019061036c9190611b3c565b610bb7565b60405161037e9190612275565b60405180910390f35b34801561039357600080fd5b5061039c610bd7565b6040516103a99190612132565b60405180910390f35b6103cc60048036038101906103c79190611bb9565b610bfb565b005b3480156103da57600080fd5b506103f560048036038101906103f09190611b3c565b610dd5565b6040516104069594939291906122c0565b60405180910390f35b34801561041b57600080fd5b5061043660048036038101906104319190611b3c565b610f48565b005b34801561044457600080fd5b5061045f600480360381019061045a9190611ad7565b6110bb565b60405161046c9190612117565b60405180910390f35b34801561048157600080fd5b5061048a611125565b005b34801561049857600080fd5b506104b360048036038101906104ae9190611a31565b611189565b6040516104c09190612117565b60405180910390f35b3480156104d557600080fd5b506104de6111bc565b6040516104eb9190612132565b60405180910390f35b34801561050057600080fd5b506105096111c3565b005b34801561051757600080fd5b50610532600480360381019061052d9190611ad7565b611213565b005b34801561054057600080fd5b5061055b60048036038101906105569190611b65565b61123c565b005b60007f7965db0b000000000000000000000000000000000000000000000000000000007bffffffffffffffffffffffffffffffffffffffffffffffffffffffff1916827bffffffffffffffffffffffffffffffffffffffffffffffffffffffff191614806105d057506105cf826112f3565b5b9050919050565b7fa49807205ce4d355092ef5a8a18f56e8913cf4a201fbe287825b095693c217756106098161060461135d565b611365565b6001600260006101000a81548160ff02191690831515021790555050565b600260009054906101000a900460ff161561064157600080fd5b662386f26fc1000034101561068b576040517f08c379a00000000000000000000000000000000000000000000000000000000081526004016106829061218f565b60405180910390fd5b600060405180604001604052808473ffffffffffffffffffffffffffffffffffffffff1681526020018381525090506106e47f9e1688b53537f356172ce07f39e129155063957163c5f9462d4d9e55b228b06c84611402565b80600360008573ffffffffffffffffffffffffffffffffffffffff1673ffffffffffffffffffffffffffffffffffffffff16815260200190815260200160002060008201518160000160006101000a81548173ffffffffffffffffffffffffffffffffffffffff021916908373ffffffffffffffffffffffffffffffffffffffff16021790555060208201518160010190805190602001906107879291906118bd565b509050507f908c54ac1a9334d99259e4391b0787c462d2c9070021cb636266f373aa99d4d7816040516107ba919061220f565b60405180910390a1505050565b7f9e1688b53537f356172ce07f39e129155063957163c5f9462d4d9e55b228b06c81565b6000806000838152602001908152602001600020600101549050919050565b7fa49807205ce4d355092ef5a8a18f56e8913cf4a201fbe287825b095693c2177561083c8161083761135d565b611365565b6108667fa49807205ce4d355092ef5a8a18f56e8913cf4a201fbe287825b095693c21775336110bb565b61086f57600080fd5b814710156108b2576040517f08c379a00000000000000000000000000000000000000000000000000000000081526004016108a99061218f565b60405180910390fd5b60003373ffffffffffffffffffffffffffffffffffffffff16836040516108d890612098565b60006040518083038185875af1925050503d8060008114610915576040519150601f19603f3d011682016040523d82523d6000602084013e61091a565b606091505b505090508061095e576040517f08c379a0000000000000000000000000000000000000000000000000000000008152600401610955906121cf565b60405180910390fd5b505050565b61096c826107eb565b61097d8161097861135d565b611365565b6109878383611402565b505050565b60036020528060005260406000206000915090508060000160009054906101000a900473ffffffffffffffffffffffffffffffffffffffff16908060010180546109d5906125a0565b80601f0160208091040260200160405190810160405280929190818152602001828054610a01906125a0565b8015610a4e5780601f10610a2357610100808354040283529160200191610a4e565b820191906000526020600020905b815481529060010190602001808311610a3157829003601f168201915b5050505050905082565b610a6061135d565b73ffffffffffffffffffffffffffffffffffffffff168173ffffffffffffffffffffffffffffffffffffffff1614610acd576040517f08c379a0000000000000000000000000000000000000000000000000000000008152600401610ac4906121ef565b60405180910390fd5b610ad782826114e2565b5050565b600260009054906101000a900460ff1681565b60016020528160005260406000208181548110610b0a57600080fd5b906000526020600020906002020160009150915050806000015490806001018054610b34906125a0565b80601f0160208091040260200160405190810160405280929190818152602001828054610b60906125a0565b8015610bad5780601f10610b8257610100808354040283529160200191610bad565b820191906000526020600020905b815481529060010190602001808311610b9057829003601f168201915b5050505050905082565b600060016000838152602001908152602001600020805490509050919050565b7fa49807205ce4d355092ef5a8a18f56e8913cf4a201fbe287825b095693c2177581565b7f9e1688b53537f356172ce07f39e129155063957163c5f9462d4d9e55b228b06c610c2d81610c2861135d565b611365565b600260009054906101000a900460ff1615610c4757600080fd5b655af3107a4000341015610c90576040517f08c379a0000000000000000000000000000000000000000000000000000000008152600401610c879061218f565b60405180910390fd5b60006040518060a001604052808881526020018781526020018673ffffffffffffffffffffffffffffffffffffffff16815260200184815260200185151581525090508060046000898152602001908152602001600020600082015181600001556020820151816001019080519060200190610d0d9291906118bd565b5060408201518160020160006101000a81548173ffffffffffffffffffffffffffffffffffffffff021916908373ffffffffffffffffffffffffffffffffffffffff1602179055506060820151816003019080519060200190610d719291906118bd565b5060808201518160040160006101000a81548160ff0219169083151502179055509050507fd642b0e9250be45b5334891bb64f9230cd1e141ddab07e2b0ace5e23b1df5f5681604051610dc49190612231565b60405180910390a150505050505050565b6004602052806000526040600020600091509050806000015490806001018054610dfe906125a0565b80601f0160208091040260200160405190810160405280929190818152602001828054610e2a906125a0565b8015610e775780601f10610e4c57610100808354040283529160200191610e77565b820191906000526020600020905b815481529060010190602001808311610e5a57829003601f168201915b5050505050908060020160009054906101000a900473ffffffffffffffffffffffffffffffffffffffff1690806003018054610eb2906125a0565b80601f0160208091040260200160405190810160405280929190818152602001828054610ede906125a0565b8015610f2b5780601f10610f0057610100808354040283529160200191610f2b565b820191906000526020600020905b815481529060010190602001808311610f0e57829003601f168201915b5050505050908060040160009054906101000a900460ff16905085565b7f9e1688b53537f356172ce07f39e129155063957163c5f9462d4d9e55b228b06c610f7a81610f7561135d565b611365565b81600015156004600083815260200190815260200160002060040160009054906101000a900460ff16151514610fe5576040517f08c379a0000000000000000000000000000000000000000000000000000000008152600401610fdc906121af565b60405180910390fd5b600260009054906101000a900460ff1615610fff57600080fd5b60016004600085815260200190815260200160002060040160006101000a81548160ff02191690831515021790555061106d836040518060400160405280601781526020017f52657461696c6572206163636570742070726f6475637400000000000000000081525061123c565b7fd642b0e9250be45b5334891bb64f9230cd1e141ddab07e2b0ace5e23b1df5f56600460008581526020019081526020016000206040516110ae9190612253565b60405180910390a1505050565b600080600084815260200190815260200160002060000160008373ffffffffffffffffffffffffffffffffffffffff1673ffffffffffffffffffffffffffffffffffffffff16815260200190815260200160002060009054906101000a900460ff16905092915050565b600260009054906101000a900460ff1661113e57600080fd5b7fa49807205ce4d355092ef5a8a18f56e8913cf4a201fbe287825b095693c217756111708161116b61135d565b611365565b3373ffffffffffffffffffffffffffffffffffffffff16ff5b60006111b57f9e1688b53537f356172ce07f39e129155063957163c5f9462d4d9e55b228b06c836110bb565b9050919050565b6000801b81565b7fa49807205ce4d355092ef5a8a18f56e8913cf4a201fbe287825b095693c217756111f5816111f061135d565b611365565b6000600260006101000a81548160ff02191690831515021790555050565b61121c826107eb565b61122d8161122861135d565b611365565b61123783836114e2565b505050565b7f9e1688b53537f356172ce07f39e129155063957163c5f9462d4d9e55b228b06c61126e8161126961135d565b611365565b60006040518060400160405280428152602001848152509050600160008581526020019081526020016000208190806001815401808255809150506001900390600052602060002090600202016000909190919091506000820151816000015560208201518160010190805190602001906112ea9291906118bd565b50505050505050565b60007f01ffc9a7000000000000000000000000000000000000000000000000000000007bffffffffffffffffffffffffffffffffffffffffffffffffffffffff1916827bffffffffffffffffffffffffffffffffffffffffffffffffffffffff1916149050919050565b600033905090565b61136f82826110bb565b6113fe576113948173ffffffffffffffffffffffffffffffffffffffff1660146115c3565b6113a28360001c60206115c3565b6040516020016113b39291906120ad565b6040516020818303038152906040526040517f08c379a00000000000000000000000000000000000000000000000000000000081526004016113f5919061214d565b60405180910390fd5b5050565b61140c82826110bb565b6114de57600160008084815260200190815260200160002060000160008373ffffffffffffffffffffffffffffffffffffffff1673ffffffffffffffffffffffffffffffffffffffff16815260200190815260200160002060006101000a81548160ff02191690831515021790555061148361135d565b73ffffffffffffffffffffffffffffffffffffffff168173ffffffffffffffffffffffffffffffffffffffff16837f2f8788117e7eff1d82e926ec794901d17c78024a50270940304540a733656f0d60405160405180910390a45b5050565b6114ec82826110bb565b156115bf57600080600084815260200190815260200160002060000160008373ffffffffffffffffffffffffffffffffffffffff1673ffffffffffffffffffffffffffffffffffffffff16815260200190815260200160002060006101000a81548160ff02191690831515021790555061156461135d565b73ffffffffffffffffffffffffffffffffffffffff168173ffffffffffffffffffffffffffffffffffffffff16837ff6391f5c32d9c69d2a47ea670b442974b53935d1edc7fd64eb21e047a839171b60405160405180910390a45b5050565b6060600060028360026115d69190612425565b6115e091906123cf565b67ffffffffffffffff81111561161f577f4e487b7100000000000000000000000000000000000000000000000000000000600052604160045260246000fd5b6040519080825280601f01601f1916602001820160405280156116515781602001600182028036833780820191505090505b5090507f3000000000000000000000000000000000000000000000000000000000000000816000815181106116af577f4e487b7100000000000000000000000000000000000000000000000000000000600052603260045260246000fd5b60200101907effffffffffffffffffffffffffffffffffffffffffffffffffffffffffffff1916908160001a9053507f780000000000000000000000000000000000000000000000000000000000000081600181518110611739577f4e487b7100000000000000000000000000000000000000000000000000000000600052603260045260246000fd5b60200101907effffffffffffffffffffffffffffffffffffffffffffffffffffffffffffff1916908160001a905350600060018460026117799190612425565b61178391906123cf565b90505b600181111561186f577f3031323334353637383961626364656600000000000000000000000000000000600f8616601081106117eb577f4e487b7100000000000000000000000000000000000000000000000000000000600052603260045260246000fd5b1a60f81b828281518110611828577f4e487b7100000000000000000000000000000000000000000000000000000000600052603260045260246000fd5b60200101907effffffffffffffffffffffffffffffffffffffffffffffffffffffffffffff1916908160001a905350600485901c94508061186890612576565b9050611786565b50600084146118b3576040517f08c379a00000000000000000000000000000000000000000000000000000000081526004016118aa9061216f565b60405180910390fd5b8091505092915050565b8280546118c9906125a0565b90600052602060002090601f0160209004810192826118eb5760008555611932565b82601f1061190457805160ff1916838001178555611932565b82800160010185558215611932579182015b82811115611931578251825591602001919060010190611916565b5b50905061193f9190611943565b5090565b5b8082111561195c576000816000905550600101611944565b5090565b600061197361196e84612346565b612321565b90508281526020810184848401111561198b57600080fd5b611996848285612534565b509392505050565b6000813590506119ad81612844565b92915050565b6000813590506119c28161285b565b92915050565b6000813590506119d781612872565b92915050565b6000813590506119ec81612889565b92915050565b600082601f830112611a0357600080fd5b8135611a13848260208601611960565b91505092915050565b600081359050611a2b816128a0565b92915050565b600060208284031215611a4357600080fd5b6000611a518482850161199e565b91505092915050565b60008060408385031215611a6d57600080fd5b6000611a7b8582860161199e565b925050602083013567ffffffffffffffff811115611a9857600080fd5b611aa4858286016119f2565b9150509250929050565b600060208284031215611ac057600080fd5b6000611ace848285016119c8565b91505092915050565b60008060408385031215611aea57600080fd5b6000611af8858286016119c8565b9250506020611b098582860161199e565b9150509250929050565b600060208284031215611b2557600080fd5b6000611b33848285016119dd565b91505092915050565b600060208284031215611b4e57600080fd5b6000611b5c84828501611a1c565b91505092915050565b60008060408385031215611b7857600080fd5b6000611b8685828601611a1c565b925050602083013567ffffffffffffffff811115611ba357600080fd5b611baf858286016119f2565b9150509250929050565b600080600080600060a08688031215611bd157600080fd5b6000611bdf88828901611a1c565b955050602086013567ffffffffffffffff811115611bfc57600080fd5b611c08888289016119f2565b9450506040611c198882890161199e565b9350506060611c2a888289016119b3565b925050608086013567ffffffffffffffff811115611c4757600080fd5b611c53888289016119f2565b9150509295509295909350565b60008060408385031215611c7357600080fd5b6000611c8185828601611a1c565b9250506020611c9285828601611a1c565b9150509250929050565b611ca5816124b6565b82525050565b611cb4816124b6565b82525050565b611cc3816124c8565b82525050565b611cd2816124c8565b82525050565b611ce1816124d4565b82525050565b6000611cf28261238c565b611cfc81856123a2565b9350611d0c818560208601612543565b611d15816126de565b840191505092915050565b6000611d2b8261238c565b611d3581856123b3565b9350611d45818560208601612543565b611d4e816126de565b840191505092915050565b6000611d648261238c565b611d6e81856123c4565b9350611d7e818560208601612543565b80840191505092915050565b60008154611d97816125a0565b611da181866123a2565b94506001821660008114611dbc5760018114611dce57611e01565b60ff1983168652602086019350611e01565b611dd785612377565b60005b83811015611df957815481890152600182019150602081019050611dda565b808801955050505b50505092915050565b6000611e176020836123b3565b9150611e22826126fc565b602082019050919050565b6000611e3a600e836123b3565b9150611e4582612725565b602082019050919050565b6000611e5d601f836123b3565b9150611e688261274e565b602082019050919050565b6000611e80600083612397565b9150611e8b82612777565b600082019050919050565b6000611ea36010836123b3565b9150611eae8261277a565b602082019050919050565b6000611ec66017836123c4565b9150611ed1826127a3565b601782019050919050565b6000611ee96011836123c4565b9150611ef4826127cc565b601182019050919050565b6000611f0c602f836123b3565b9150611f17826127f5565b604082019050919050565b6000604083016000830151611f3a6000860182611c9c565b5060208301518482036020860152611f528282611ce7565b9150508091505092915050565b600060a083016000830151611f77600086018261207a565b5060208301518482036020860152611f8f8282611ce7565b9150506040830151611fa46040860182611c9c565b5060608301518482036060860152611fbc8282611ce7565b9150506080830151611fd16080860182611cba565b508091505092915050565b600060a083016000808401549050611ff381612606565b612000600087018261207a565b506001840185830360208701526120178382611d8a565b9250506002840154905061202a816125d2565b6120376040870182611c9c565b5060038401858303606087015261204e8382611d8a565b92505060048401549050612061816125ec565b61206e6080870182611cba565b50819250505092915050565b6120838161252a565b82525050565b6120928161252a565b82525050565b60006120a382611e73565b9150819050919050565b60006120b882611eb9565b91506120c48285611d59565b91506120cf82611edc565b91506120db8284611d59565b91508190509392505050565b60006040820190506120fc6000830185611cab565b818103602083015261210e8184611d20565b90509392505050565b600060208201905061212c6000830184611cc9565b92915050565b60006020820190506121476000830184611cd8565b92915050565b600060208201905081810360008301526121678184611d20565b905092915050565b6000602082019050818103600083015261218881611e0a565b9050919050565b600060208201905081810360008301526121a881611e2d565b9050919050565b600060208201905081810360008301526121c881611e50565b9050919050565b600060208201905081810360008301526121e881611e96565b9050919050565b6000602082019050818103600083015261220881611eff565b9050919050565b600060208201905081810360008301526122298184611f22565b905092915050565b6000602082019050818103600083015261224b8184611f5f565b905092915050565b6000602082019050818103600083015261226d8184611fdc565b905092915050565b600060208201905061228a6000830184612089565b92915050565b60006040820190506122a56000830185612089565b81810360208301526122b78184611d20565b90509392505050565b600060a0820190506122d56000830188612089565b81810360208301526122e78187611d20565b90506122f66040830186611cab565b81810360608301526123088185611d20565b90506123176080830184611cc9565b9695505050505050565b600061232b61233c565b90506123378282612620565b919050565b6000604051905090565b600067ffffffffffffffff821115612361576123606126af565b5b61236a826126de565b9050602081019050919050565b60008190508160005260206000209050919050565b600081519050919050565b600081905092915050565b600082825260208201905092915050565b600082825260208201905092915050565b600081905092915050565b60006123da8261252a565b91506123e58361252a565b9250827fffffffffffffffffffffffffffffffffffffffffffffffffffffffffffffffff0382111561241a57612419612651565b5b828201905092915050565b60006124308261252a565b915061243b8361252a565b9250817fffffffffffffffffffffffffffffffffffffffffffffffffffffffffffffffff048311821515161561247457612473612651565b5b828202905092915050565b600073ffffffffffffffffffffffffffffffffffffffff82169050919050565b600060ff82169050919050565b6000819050919050565b60006124c18261250a565b9050919050565b60008115159050919050565b6000819050919050565b60007fffffffff0000000000000000000000000000000000000000000000000000000082169050919050565b600073ffffffffffffffffffffffffffffffffffffffff82169050919050565b6000819050919050565b82818337600083830152505050565b60005b83811015612561578082015181840152602081019050612546565b83811115612570576000848401525b50505050565b60006125818261252a565b9150600082141561259557612594612651565b5b600182039050919050565b600060028204905060018216806125b857607f821691505b602082108114156125cc576125cb612680565b5b50919050565b60006125e56125e0836126ef565b61247f565b9050919050565b60006125ff6125fa836126ef565b61249f565b9050919050565b6000612619612614836126ef565b6124ac565b9050919050565b612629826126de565b810181811067ffffffffffffffff82111715612648576126476126af565b5b80604052505050565b7f4e487b7100000000000000000000000000000000000000000000000000000000600052601160045260246000fd5b7f4e487b7100000000000000000000000000000000000000000000000000000000600052602260045260246000fd5b7f4e487b7100000000000000000000000000000000000000000000000000000000600052604160045260246000fd5b6000601f19601f8301169050919050565b60008160001c9050919050565b7f537472696e67733a20686578206c656e67746820696e73756666696369656e74600082015250565b7f496e76616c696420616d6f756e74000000000000000000000000000000000000600082015250565b7f546869732070726f6475637420616c726561647920636f6e6669726d65642100600082015250565b50565b7f5472616e73666572206661696c65642e00000000000000000000000000000000600082015250565b7f416363657373436f6e74726f6c3a206163636f756e7420000000000000000000600082015250565b7f206973206d697373696e6720726f6c6520000000000000000000000000000000600082015250565b7f416363657373436f6e74726f6c3a2063616e206f6e6c792072656e6f756e636560008201527f20726f6c657320666f722073656c660000000000000000000000000000000000602082015250565b61284d816124b6565b811461285857600080fd5b50565b612864816124c8565b811461286f57600080fd5b50565b61287b816124d4565b811461288657600080fd5b50565b612892816124de565b811461289d57600080fd5b50565b6128a98161252a565b81146128b457600080fd5b5056fea2646970667358221220680ca09f8755399515bcce99f91750843009b15c2b3200f5d9cc6b54182c1a1e64736f6c63430008040033",
  "immutableReferences": {},
  "source": "// SPDX-License-Identifier: MIT\npragma solidity ^0.8.4;\n\nimport \"@openzeppelin/contracts/access/AccessControl.sol\";\n\n\ncontract TomatoCheck is AccessControl {\n    bytes32 public constant COMPANY_ROLE = keccak256(\"COMPANY_ROLE\");\n    bytes32 public constant ADMIN_ROLE = keccak256(\"ADMIN_ROLE\");\n    struct Product {\n        uint productID;\n        string productName;\n        address Provider;\n        string Retailer;\n        bool isConfirmByRetailer;\n    }\n\n    struct ProductDiary{\n        uint timestamp;\n        string message;\n    }\n\n    mapping(uint => ProductDiary[]) public productDairy;\n\n    struct Company {\n        address companyAddress;\n        string companyName;\n    }\n    bool public isStopped = false;\n    mapping(address => Company) public companies;\n    mapping(uint => Product) public products;\n\n    constructor() {\n        _setupRole(DEFAULT_ADMIN_ROLE, msg.sender);\n        _setupRole(ADMIN_ROLE, msg.sender);\n    }\n\n    receive() external payable {}\n\n    // Modifiers zone\n    modifier checkConfirmByRetailer (uint productID){\n        require(products[productID].isConfirmByRetailer == false, \"This product already confirmed!\");\n        _;\n    }\n\n    modifier onlyWhenNotStopped {\n        require(!isStopped);\n        _;\n    }\n\n    modifier onlyWhenStopped {\n        require(isStopped);\n        _;\n    }\n\n\n    // Events zone\n    event productEvent(Product product);\n\n    event setCompanyEvent(Company company);\n\n    // Function zone\n    function acceptByRetailer (uint productID) external onlyRole(COMPANY_ROLE) checkConfirmByRetailer(productID) onlyWhenNotStopped {\n        products[productID].isConfirmByRetailer = true;\n        writeProductDairy(productID, \"Retailer accept product\");\n        // updateStatusOnProvider(productID, provider);\n        emit productEvent(products[productID]);\n    }\n\n    function createProduct(\n        uint productID,\n        string memory productName,\n        address Provider,\n        bool isConfirmByRetailer,\n        string memory Retailer\n    ) external payable onlyRole(COMPANY_ROLE) onlyWhenNotStopped {\n        require (msg.value >= 0.0001 ether, \"Invalid amount\");\n            Product memory product = Product(\n                productID,\n                productName,\n                Provider,\n                Retailer,\n                isConfirmByRetailer\n            );\n            products[productID] = product;\n            emit productEvent(product);\n        \n    }\n\n    function writeProductDairy(uint _productId, string memory _message) public onlyRole(COMPANY_ROLE) {\n        ProductDiary memory diary = ProductDiary(\n            block.timestamp,\n            _message\n        );\n        productDairy[_productId].push(diary);\n    }\n\n    function getProductDairyByProductID(uint _productId) external view returns(uint){\n        return productDairy[_productId].length;\n    }\n\n    function isCompany (address _address) external view returns (bool) {\n        return hasRole(COMPANY_ROLE, _address);\n\n    }\n\n    function setCompany(\n        address companyAddress,\n        string memory companyName\n    ) external payable onlyWhenNotStopped {\n        require(msg.value >= 0.01 ether, \"Invalid amount\");\n        Company memory newCompany = Company (\n            companyAddress,\n            companyName\n        );\n        _grantRole(COMPANY_ROLE, companyAddress);\n        companies[companyAddress] = newCompany;\n        emit setCompanyEvent(newCompany);\n\n    }\n\n    function selfDestruct()\n        external\n        onlyWhenStopped\n        onlyRole(ADMIN_ROLE)\n    {\n        selfdestruct(payable(msg.sender));\n    }\n\n    function stopContract()\n        external\n        onlyRole(ADMIN_ROLE)\n    {\n        isStopped = true;\n    }\n\n    function resumeContract()\n        external\n        onlyRole(ADMIN_ROLE)\n    {\n        isStopped = false;\n    }\n\n    function withdraw(uint amount)\n        external\n        onlyRole(ADMIN_ROLE)\n    {\n        require(hasRole(ADMIN_ROLE, msg.sender));\n        require(address(this).balance >= amount, \"Invalid amount\");\n        (bool success, ) = msg.sender.call{value: amount}(\"\");\n        require(success, \"Transfer failed.\");\n    }\n}",
  "sourcePath": "/Users/leducthang/Desktop/blockchain/tomato-chain/contracts/TomatoChain.sol",
  "compiler": {
    "name": "solc",
    "version": "0.8.4+commit.c7e474f2.Emscripten.clang"
  },
  "schemaVersion": "3.4.6",
  "updatedAt": "2022-05-11T18:38:45.243Z",
  "networkType": "ethereum",
  "devdoc": {
    "kind": "dev",
    "methods": {
      "getRoleAdmin(bytes32)": {
        "details": "Returns the admin role that controls `role`. See {grantRole} and {revokeRole}. To change a role's admin, use {_setRoleAdmin}."
      },
      "grantRole(bytes32,address)": {
        "details": "Grants `role` to `account`. If `account` had not been already granted `role`, emits a {RoleGranted} event. Requirements: - the caller must have ``role``'s admin role."
      },
      "hasRole(bytes32,address)": {
        "details": "Returns `true` if `account` has been granted `role`."
      },
      "renounceRole(bytes32,address)": {
        "details": "Revokes `role` from the calling account. Roles are often managed via {grantRole} and {revokeRole}: this function's purpose is to provide a mechanism for accounts to lose their privileges if they are compromised (such as when a trusted device is misplaced). If the calling account had been revoked `role`, emits a {RoleRevoked} event. Requirements: - the caller must be `account`."
      },
      "revokeRole(bytes32,address)": {
        "details": "Revokes `role` from `account`. If `account` had been granted `role`, emits a {RoleRevoked} event. Requirements: - the caller must have ``role``'s admin role."
      },
      "supportsInterface(bytes4)": {
        "details": "See {IERC165-supportsInterface}."
      }
    },
    "version": 1
  },
  "userdoc": {
    "kind": "user",
    "methods": {},
    "version": 1
  }
}