{
  "contractName": "TomatoCheck",
  "abi": [
    {
      "inputs": [],
      "stateMutability": "nonpayable",
      "type": "constructor"
    },
    {
      "anonymous": false,
      "inputs": [
        {
          "indexed": true,
          "internalType": "bytes32",
          "name": "role",
          "type": "bytes32"
        },
        {
          "indexed": true,
          "internalType": "bytes32",
          "name": "previousAdminRole",
          "type": "bytes32"
        },
        {
          "indexed": true,
          "internalType": "bytes32",
          "name": "newAdminRole",
          "type": "bytes32"
        }
      ],
      "name": "RoleAdminChanged",
      "type": "event"
    },
    {
      "anonymous": false,
      "inputs": [
        {
          "indexed": true,
          "internalType": "bytes32",
          "name": "role",
          "type": "bytes32"
        },
        {
          "indexed": true,
          "internalType": "address",
          "name": "account",
          "type": "address"
        },
        {
          "indexed": true,
          "internalType": "address",
          "name": "sender",
          "type": "address"
        }
      ],
      "name": "RoleGranted",
      "type": "event"
    },
    {
      "anonymous": false,
      "inputs": [
        {
          "indexed": true,
          "internalType": "bytes32",
          "name": "role",
          "type": "bytes32"
        },
        {
          "indexed": true,
          "internalType": "address",
          "name": "account",
          "type": "address"
        },
        {
          "indexed": true,
          "internalType": "address",
          "name": "sender",
          "type": "address"
        }
      ],
      "name": "RoleRevoked",
      "type": "event"
    },
    {
      "anonymous": false,
      "inputs": [
        {
          "components": [
            {
              "internalType": "uint256",
              "name": "productID",
              "type": "uint256"
            },
            {
              "internalType": "bytes32",
              "name": "productName",
              "type": "bytes32"
            },
            {
              "internalType": "address",
              "name": "Provider",
              "type": "address"
            },
            {
              "internalType": "bytes32",
              "name": "Retailer",
              "type": "bytes32"
            },
            {
              "internalType": "bool",
              "name": "isConfirmByRetailer",
              "type": "bool"
            }
          ],
          "indexed": false,
          "internalType": "struct TomatoCheck.Product",
          "name": "product",
          "type": "tuple"
        }
      ],
      "name": "productEvent",
      "type": "event"
    },
    {
      "anonymous": false,
      "inputs": [
        {
          "components": [
            {
              "internalType": "address",
              "name": "companyAddress",
              "type": "address"
            },
            {
              "internalType": "bytes32",
              "name": "companyName",
              "type": "bytes32"
            }
          ],
          "indexed": false,
          "internalType": "struct TomatoCheck.Company",
          "name": "company",
          "type": "tuple"
        }
      ],
      "name": "setCompanyEvent",
      "type": "event"
    },
    {
      "inputs": [],
      "name": "ADMIN_ROLE",
      "outputs": [
        {
          "internalType": "bytes32",
          "name": "",
          "type": "bytes32"
        }
      ],
      "stateMutability": "view",
      "type": "function"
    },
    {
      "inputs": [],
      "name": "COMPANY_ROLE",
      "outputs": [
        {
          "internalType": "bytes32",
          "name": "",
          "type": "bytes32"
        }
      ],
      "stateMutability": "view",
      "type": "function"
    },
    {
      "inputs": [],
      "name": "DEFAULT_ADMIN_ROLE",
      "outputs": [
        {
          "internalType": "bytes32",
          "name": "",
          "type": "bytes32"
        }
      ],
      "stateMutability": "view",
      "type": "function"
    },
    {
      "inputs": [
        {
          "internalType": "address",
          "name": "",
          "type": "address"
        }
      ],
      "name": "companies",
      "outputs": [
        {
          "internalType": "address",
          "name": "companyAddress",
          "type": "address"
        },
        {
          "internalType": "bytes32",
          "name": "companyName",
          "type": "bytes32"
        }
      ],
      "stateMutability": "view",
      "type": "function"
    },
    {
      "inputs": [
        {
          "internalType": "bytes32",
          "name": "role",
          "type": "bytes32"
        }
      ],
      "name": "getRoleAdmin",
      "outputs": [
        {
          "internalType": "bytes32",
          "name": "",
          "type": "bytes32"
        }
      ],
      "stateMutability": "view",
      "type": "function"
    },
    {
      "inputs": [
        {
          "internalType": "bytes32",
          "name": "role",
          "type": "bytes32"
        },
        {
          "internalType": "address",
          "name": "account",
          "type": "address"
        }
      ],
      "name": "grantRole",
      "outputs": [],
      "stateMutability": "nonpayable",
      "type": "function"
    },
    {
      "inputs": [
        {
          "internalType": "bytes32",
          "name": "role",
          "type": "bytes32"
        },
        {
          "internalType": "address",
          "name": "account",
          "type": "address"
        }
      ],
      "name": "hasRole",
      "outputs": [
        {
          "internalType": "bool",
          "name": "",
          "type": "bool"
        }
      ],
      "stateMutability": "view",
      "type": "function"
    },
    {
      "inputs": [],
      "name": "isStopped",
      "outputs": [
        {
          "internalType": "bool",
          "name": "",
          "type": "bool"
        }
      ],
      "stateMutability": "view",
      "type": "function"
    },
    {
      "inputs": [
        {
          "internalType": "uint256",
          "name": "",
          "type": "uint256"
        },
        {
          "internalType": "uint256",
          "name": "",
          "type": "uint256"
        }
      ],
      "name": "productDairy",
      "outputs": [
        {
          "internalType": "uint256",
          "name": "timestamp",
          "type": "uint256"
        },
        {
          "internalType": "bytes32",
          "name": "message",
          "type": "bytes32"
        }
      ],
      "stateMutability": "view",
      "type": "function"
    },
    {
      "inputs": [
        {
          "internalType": "uint256",
          "name": "",
          "type": "uint256"
        }
      ],
      "name": "products",
      "outputs": [
        {
          "internalType": "uint256",
          "name": "productID",
          "type": "uint256"
        },
        {
          "internalType": "bytes32",
          "name": "productName",
          "type": "bytes32"
        },
        {
          "internalType": "address",
          "name": "Provider",
          "type": "address"
        },
        {
          "internalType": "bytes32",
          "name": "Retailer",
          "type": "bytes32"
        },
        {
          "internalType": "bool",
          "name": "isConfirmByRetailer",
          "type": "bool"
        }
      ],
      "stateMutability": "view",
      "type": "function"
    },
    {
      "inputs": [
        {
          "internalType": "bytes32",
          "name": "role",
          "type": "bytes32"
        },
        {
          "internalType": "address",
          "name": "account",
          "type": "address"
        }
      ],
      "name": "renounceRole",
      "outputs": [],
      "stateMutability": "nonpayable",
      "type": "function"
    },
    {
      "inputs": [
        {
          "internalType": "bytes32",
          "name": "role",
          "type": "bytes32"
        },
        {
          "internalType": "address",
          "name": "account",
          "type": "address"
        }
      ],
      "name": "revokeRole",
      "outputs": [],
      "stateMutability": "nonpayable",
      "type": "function"
    },
    {
      "inputs": [
        {
          "internalType": "bytes4",
          "name": "interfaceId",
          "type": "bytes4"
        }
      ],
      "name": "supportsInterface",
      "outputs": [
        {
          "internalType": "bool",
          "name": "",
          "type": "bool"
        }
      ],
      "stateMutability": "view",
      "type": "function"
    },
    {
      "stateMutability": "payable",
      "type": "receive"
    },
    {
      "inputs": [
        {
          "internalType": "uint256",
          "name": "productID",
          "type": "uint256"
        }
      ],
      "name": "acceptByRetailer",
      "outputs": [],
      "stateMutability": "nonpayable",
      "type": "function"
    },
    {
      "inputs": [
        {
          "internalType": "uint256",
          "name": "productID",
          "type": "uint256"
        },
        {
          "internalType": "bytes32",
          "name": "productName",
          "type": "bytes32"
        },
        {
          "internalType": "address",
          "name": "Provider",
          "type": "address"
        },
        {
          "internalType": "bool",
          "name": "isConfirmByRetailer",
          "type": "bool"
        },
        {
          "internalType": "bytes32",
          "name": "Retailer",
          "type": "bytes32"
        }
      ],
      "name": "createProduct",
      "outputs": [],
      "stateMutability": "payable",
      "type": "function"
    },
    {
      "inputs": [
        {
          "internalType": "uint256",
          "name": "_productId",
          "type": "uint256"
        },
        {
          "internalType": "bytes32",
          "name": "_message",
          "type": "bytes32"
        }
      ],
      "name": "writeProductDairy",
      "outputs": [],
      "stateMutability": "nonpayable",
      "type": "function"
    },
    {
      "inputs": [
        {
          "internalType": "uint256",
          "name": "_productId",
          "type": "uint256"
        }
      ],
      "name": "getProductDairyByProductID",
      "outputs": [
        {
          "internalType": "uint256",
          "name": "",
          "type": "uint256"
        }
      ],
      "stateMutability": "view",
      "type": "function"
    },
    {
      "inputs": [
        {
          "internalType": "address",
          "name": "_address",
          "type": "address"
        }
      ],
      "name": "isCompany",
      "outputs": [
        {
          "internalType": "bool",
          "name": "",
          "type": "bool"
        }
      ],
      "stateMutability": "view",
      "type": "function"
    },
    {
      "inputs": [
        {
          "internalType": "address",
          "name": "companyAddress",
          "type": "address"
        },
        {
          "internalType": "bytes32",
          "name": "companyName",
          "type": "bytes32"
        }
      ],
      "name": "setCompany",
      "outputs": [],
      "stateMutability": "payable",
      "type": "function"
    },
    {
      "inputs": [],
      "name": "selfDestruct",
      "outputs": [],
      "stateMutability": "nonpayable",
      "type": "function"
    },
    {
      "inputs": [],
      "name": "stopContract",
      "outputs": [],
      "stateMutability": "nonpayable",
      "type": "function"
    },
    {
      "inputs": [],
      "name": "resumeContract",
      "outputs": [],
      "stateMutability": "nonpayable",
      "type": "function"
    },
    {
      "inputs": [
        {
          "internalType": "uint256",
          "name": "amount",
          "type": "uint256"
        }
      ],
      "name": "withdraw",
      "outputs": [],
      "stateMutability": "nonpayable",
      "type": "function"
    }
  ],
  "bytecode": "0x60806040526000600260006101000a81548160ff0219169083151502179055503480156200002c57600080fd5b50620000426000801b336200007a60201b60201c565b620000747fa49807205ce4d355092ef5a8a18f56e8913cf4a201fbe287825b095693c21775336200007a60201b60201c565b620001f3565b6200008c82826200009060201b60201c565b5050565b620000a282826200018160201b60201c565b6200017d57600160008084815260200190815260200160002060000160008373ffffffffffffffffffffffffffffffffffffffff1673ffffffffffffffffffffffffffffffffffffffff16815260200190815260200160002060006101000a81548160ff02191690831515021790555062000122620001eb60201b60201c565b73ffffffffffffffffffffffffffffffffffffffff168173ffffffffffffffffffffffffffffffffffffffff16837f2f8788117e7eff1d82e926ec794901d17c78024a50270940304540a733656f0d60405160405180910390a45b5050565b600080600084815260200190815260200160002060000160008373ffffffffffffffffffffffffffffffffffffffff1673ffffffffffffffffffffffffffffffffffffffff16815260200190815260200160002060009054906101000a900460ff16905092915050565b600033905090565b6122de80620002036000396000f3fe6080604052600436106101445760003560e01c80637166edc5116100b65780639cb8a26a1161006f5780639cb8a26a14610482578063a0406ce214610499578063a217fddf146104d6578063c4bc5da514610501578063d547741f14610518578063d9a5f7fb146105415761014b565b80637166edc514610357578063729a914d1461037357806375b238fc146103b05780637acc0b20146103db5780637b59e4e51461041c57806391d14854146104455761014b565b80632f2ff15d116101085780632f2ff15d14610235578063355e6ce81461025e57806336568abe1461029c5780633f683b6a146102c55780634e470458146102f0578063575553f71461032e5761014b565b806301ffc9a71461015057806312253a6c1461018d5780631c9ee11a146101a4578063248a9ca3146101cf5780632e1a7d4d1461020c5761014b565b3661014b57005b600080fd5b34801561015c57600080fd5b506101776004803603810190610172919061176f565b61055d565b6040516101849190611c5a565b60405180910390f35b34801561019957600080fd5b506101a26105d7565b005b3480156101b057600080fd5b506101b9610627565b6040516101c69190611c75565b60405180910390f35b3480156101db57600080fd5b506101f660048036038101906101f1919061170a565b61064b565b6040516102039190611c75565b60405180910390f35b34801561021857600080fd5b50610233600480360381019061022e9190611798565b61066a565b005b34801561024157600080fd5b5061025c60048036038101906102579190611733565b6107c3565b005b34801561026a57600080fd5b50610285600480360381019061028091906116a5565b6107ec565b604051610293929190611c31565b60405180910390f35b3480156102a857600080fd5b506102c360048036038101906102be9190611733565b610830565b005b3480156102d157600080fd5b506102da6108b3565b6040516102e79190611c5a565b60405180910390f35b3480156102fc57600080fd5b5061031760048036038101906103129190611874565b6108c6565b604051610325929190611dbe565b60405180910390f35b34801561033a57600080fd5b50610355600480360381019061035091906117c1565b610907565b005b610371600480360381019061036c91906116ce565b6109ab565b005b34801561037f57600080fd5b5061039a60048036038101906103959190611798565b610b38565b6040516103a79190611da3565b60405180910390f35b3480156103bc57600080fd5b506103c5610b58565b6040516103d29190611c75565b60405180910390f35b3480156103e757600080fd5b5061040260048036038101906103fd9190611798565b610b7c565b604051610413959493929190611de7565b60405180910390f35b34801561042857600080fd5b50610443600480360381019061043e9190611798565b610bdf565b005b34801561045157600080fd5b5061046c60048036038101906104679190611733565b610d3d565b6040516104799190611c5a565b60405180910390f35b34801561048e57600080fd5b50610497610da7565b005b3480156104a557600080fd5b506104c060048036038101906104bb91906116a5565b610e0b565b6040516104cd9190611c5a565b60405180910390f35b3480156104e257600080fd5b506104eb610e3e565b6040516104f89190611c75565b60405180910390f35b34801561050d57600080fd5b50610516610e45565b005b34801561052457600080fd5b5061053f600480360381019061053a9190611733565b610e95565b005b61055b600480360381019061055691906117fd565b610ebe565b005b60007f7965db0b000000000000000000000000000000000000000000000000000000007bffffffffffffffffffffffffffffffffffffffffffffffffffffffff1916827bffffffffffffffffffffffffffffffffffffffffffffffffffffffff191614806105d057506105cf82611072565b5b9050919050565b7fa49807205ce4d355092ef5a8a18f56e8913cf4a201fbe287825b095693c21775610609816106046110dc565b6110e4565b6001600260006101000a81548160ff02191690831515021790555050565b7f9e1688b53537f356172ce07f39e129155063957163c5f9462d4d9e55b228b06c81565b6000806000838152602001908152602001600020600101549050919050565b7fa49807205ce4d355092ef5a8a18f56e8913cf4a201fbe287825b095693c2177561069c816106976110dc565b6110e4565b6106c67fa49807205ce4d355092ef5a8a18f56e8913cf4a201fbe287825b095693c2177533610d3d565b6106cf57600080fd5b81471015610712576040517f08c379a000000000000000000000000000000000000000000000000000000000815260040161070990611cd2565b60405180910390fd5b60003373ffffffffffffffffffffffffffffffffffffffff168360405161073890611be2565b60006040518083038185875af1925050503d8060008114610775576040519150601f19603f3d011682016040523d82523d6000602084013e61077a565b606091505b50509050806107be576040517f08c379a00000000000000000000000000000000000000000000000000000000081526004016107b590611d12565b60405180910390fd5b505050565b6107cc8261064b565b6107dd816107d86110dc565b6110e4565b6107e78383611181565b505050565b60036020528060005260406000206000915090508060000160009054906101000a900473ffffffffffffffffffffffffffffffffffffffff16908060010154905082565b6108386110dc565b73ffffffffffffffffffffffffffffffffffffffff168173ffffffffffffffffffffffffffffffffffffffff16146108a5576040517f08c379a000000000000000000000000000000000000000000000000000000000815260040161089c90611d32565b60405180910390fd5b6108af8282611261565b5050565b600260009054906101000a900460ff1681565b600160205281600052604060002081815481106108e257600080fd5b9060005260206000209060020201600091509150508060000154908060010154905082565b7f9e1688b53537f356172ce07f39e129155063957163c5f9462d4d9e55b228b06c610939816109346110dc565b6110e4565b60006040518060400160405280428152602001848152509050600160008581526020019081526020016000208190806001815401808255809150506001900390600052602060002090600202016000909190919091506000820151816000015560208201518160010155505050505050565b600260009054906101000a900460ff16156109c557600080fd5b662386f26fc10000341015610a0f576040517f08c379a0000000000000000000000000000000000000000000000000000000008152600401610a0690611cd2565b60405180910390fd5b600060405180604001604052808473ffffffffffffffffffffffffffffffffffffffff168152602001838152509050610a687f9e1688b53537f356172ce07f39e129155063957163c5f9462d4d9e55b228b06c84611181565b80600360008573ffffffffffffffffffffffffffffffffffffffff1673ffffffffffffffffffffffffffffffffffffffff16815260200190815260200160002060008201518160000160006101000a81548173ffffffffffffffffffffffffffffffffffffffff021916908373ffffffffffffffffffffffffffffffffffffffff160217905550602082015181600101559050507f8a07c42032bbcf5858e4d91c0f29a46b32c52a52d82e93a680a9233aeaebe41281604051610b2b9190611d52565b60405180910390a1505050565b600060016000838152602001908152602001600020805490509050919050565b7fa49807205ce4d355092ef5a8a18f56e8913cf4a201fbe287825b095693c2177581565b60046020528060005260406000206000915090508060000154908060010154908060020160009054906101000a900473ffffffffffffffffffffffffffffffffffffffff16908060030154908060040160009054906101000a900460ff16905085565b7f9e1688b53537f356172ce07f39e129155063957163c5f9462d4d9e55b228b06c610c1181610c0c6110dc565b6110e4565b81600015156004600083815260200190815260200160002060040160009054906101000a900460ff16151514610c7c576040517f08c379a0000000000000000000000000000000000000000000000000000000008152600401610c7390611cf2565b60405180910390fd5b600260009054906101000a900460ff1615610c9657600080fd5b60016004600085815260200190815260200160002060040160006101000a81548160ff021916908315150217905550610cef837f52657461696c6572206163636570742070726f64756374000000000000000000610907565b7f7a68e85646e6cf4b5a14ee424f476bee57aa92f32f43b84aa308d6b481f24c0a60046000858152602001908152602001600020604051610d309190611d88565b60405180910390a1505050565b600080600084815260200190815260200160002060000160008373ffffffffffffffffffffffffffffffffffffffff1673ffffffffffffffffffffffffffffffffffffffff16815260200190815260200160002060009054906101000a900460ff16905092915050565b600260009054906101000a900460ff16610dc057600080fd5b7fa49807205ce4d355092ef5a8a18f56e8913cf4a201fbe287825b095693c21775610df281610ded6110dc565b6110e4565b3373ffffffffffffffffffffffffffffffffffffffff16ff5b6000610e377f9e1688b53537f356172ce07f39e129155063957163c5f9462d4d9e55b228b06c83610d3d565b9050919050565b6000801b81565b7fa49807205ce4d355092ef5a8a18f56e8913cf4a201fbe287825b095693c21775610e7781610e726110dc565b6110e4565b6000600260006101000a81548160ff02191690831515021790555050565b610e9e8261064b565b610eaf81610eaa6110dc565b6110e4565b610eb98383611261565b505050565b7f9e1688b53537f356172ce07f39e129155063957163c5f9462d4d9e55b228b06c610ef081610eeb6110dc565b6110e4565b600260009054906101000a900460ff1615610f0a57600080fd5b655af3107a4000341015610f53576040517f08c379a0000000000000000000000000000000000000000000000000000000008152600401610f4a90611cd2565b60405180910390fd5b60006040518060a001604052808881526020018781526020018673ffffffffffffffffffffffffffffffffffffffff16815260200184815260200185151581525090508060046000898152602001908152602001600020600082015181600001556020820151816001015560408201518160020160006101000a81548173ffffffffffffffffffffffffffffffffffffffff021916908373ffffffffffffffffffffffffffffffffffffffff1602179055506060820151816003015560808201518160040160006101000a81548160ff0219169083151502179055509050507f7a68e85646e6cf4b5a14ee424f476bee57aa92f32f43b84aa308d6b481f24c0a816040516110619190611d6d565b60405180910390a150505050505050565b60007f01ffc9a7000000000000000000000000000000000000000000000000000000007bffffffffffffffffffffffffffffffffffffffffffffffffffffffff1916827bffffffffffffffffffffffffffffffffffffffffffffffffffffffff1916149050919050565b600033905090565b6110ee8282610d3d565b61117d576111138173ffffffffffffffffffffffffffffffffffffffff166014611342565b6111218360001c6020611342565b604051602001611132929190611bf7565b6040516020818303038152906040526040517f08c379a00000000000000000000000000000000000000000000000000000000081526004016111749190611c90565b60405180910390fd5b5050565b61118b8282610d3d565b61125d57600160008084815260200190815260200160002060000160008373ffffffffffffffffffffffffffffffffffffffff1673ffffffffffffffffffffffffffffffffffffffff16815260200190815260200160002060006101000a81548160ff0219169083151502179055506112026110dc565b73ffffffffffffffffffffffffffffffffffffffff168173ffffffffffffffffffffffffffffffffffffffff16837f2f8788117e7eff1d82e926ec794901d17c78024a50270940304540a733656f0d60405160405180910390a45b5050565b61126b8282610d3d565b1561133e57600080600084815260200190815260200160002060000160008373ffffffffffffffffffffffffffffffffffffffff1673ffffffffffffffffffffffffffffffffffffffff16815260200190815260200160002060006101000a81548160ff0219169083151502179055506112e36110dc565b73ffffffffffffffffffffffffffffffffffffffff168173ffffffffffffffffffffffffffffffffffffffff16837ff6391f5c32d9c69d2a47ea670b442974b53935d1edc7fd64eb21e047a839171b60405160405180910390a45b5050565b6060600060028360026113559190611ec2565b61135f9190611e6c565b67ffffffffffffffff81111561139e577f4e487b7100000000000000000000000000000000000000000000000000000000600052604160045260246000fd5b6040519080825280601f01601f1916602001820160405280156113d05781602001600182028036833780820191505090505b5090507f30000000000000000000000000000000000000000000000000000000000000008160008151811061142e577f4e487b7100000000000000000000000000000000000000000000000000000000600052603260045260246000fd5b60200101907effffffffffffffffffffffffffffffffffffffffffffffffffffffffffffff1916908160001a9053507f7800000000000000000000000000000000000000000000000000000000000000816001815181106114b8577f4e487b7100000000000000000000000000000000000000000000000000000000600052603260045260246000fd5b60200101907effffffffffffffffffffffffffffffffffffffffffffffffffffffffffffff1916908160001a905350600060018460026114f89190611ec2565b6115029190611e6c565b90505b60018111156115ee577f3031323334353637383961626364656600000000000000000000000000000000600f86166010811061156a577f4e487b7100000000000000000000000000000000000000000000000000000000600052603260045260246000fd5b1a60f81b8282815181106115a7577f4e487b7100000000000000000000000000000000000000000000000000000000600052603260045260246000fd5b60200101907effffffffffffffffffffffffffffffffffffffffffffffffffffffffffffff1916908160001a905350600485901c9450806115e79061200e565b9050611505565b5060008414611632576040517f08c379a000000000000000000000000000000000000000000000000000000000815260040161162990611cb2565b60405180910390fd5b8091505092915050565b60008135905061164b81612235565b92915050565b6000813590506116608161224c565b92915050565b60008135905061167581612263565b92915050565b60008135905061168a8161227a565b92915050565b60008135905061169f81612291565b92915050565b6000602082840312156116b757600080fd5b60006116c58482850161163c565b91505092915050565b600080604083850312156116e157600080fd5b60006116ef8582860161163c565b925050602061170085828601611666565b9150509250929050565b60006020828403121561171c57600080fd5b600061172a84828501611666565b91505092915050565b6000806040838503121561174657600080fd5b600061175485828601611666565b92505060206117658582860161163c565b9150509250929050565b60006020828403121561178157600080fd5b600061178f8482850161167b565b91505092915050565b6000602082840312156117aa57600080fd5b60006117b884828501611690565b91505092915050565b600080604083850312156117d457600080fd5b60006117e285828601611690565b92505060206117f385828601611666565b9150509250929050565b600080600080600060a0868803121561181557600080fd5b600061182388828901611690565b955050602061183488828901611666565b94505060406118458882890161163c565b935050606061185688828901611651565b925050608061186788828901611666565b9150509295509295909350565b6000806040838503121561188757600080fd5b600061189585828601611690565b92505060206118a685828601611690565b9150509250929050565b6118b981611f5d565b82525050565b6118c881611f5d565b82525050565b6118d781611f6f565b82525050565b6118e681611f6f565b82525050565b6118f581611f7b565b82525050565b61190481611f7b565b82525050565b600061191582611e3a565b61191f8185611e50565b935061192f818560208601611fdb565b611938816120cf565b840191505092915050565b600061194e82611e3a565b6119588185611e61565b9350611968818560208601611fdb565b80840191505092915050565b6000611981602083611e50565b915061198c826120ed565b602082019050919050565b60006119a4600e83611e50565b91506119af82612116565b602082019050919050565b60006119c7601f83611e50565b91506119d28261213f565b602082019050919050565b60006119ea600083611e45565b91506119f582612168565b600082019050919050565b6000611a0d601083611e50565b9150611a188261216b565b602082019050919050565b6000611a30601783611e61565b9150611a3b82612194565b601782019050919050565b6000611a53601183611e61565b9150611a5e826121bd565b601182019050919050565b6000611a76602f83611e50565b9150611a81826121e6565b604082019050919050565b604082016000820151611aa260008501826118b0565b506020820151611ab560208501826118ec565b50505050565b60a082016000820151611ad16000850182611bc4565b506020820151611ae460208501826118ec565b506040820151611af760408501826118b0565b506060820151611b0a60608501826118ec565b506080820151611b1d60808501826118ce565b50505050565b60a082016000808301549050611b3881612086565b611b456000860182611bc4565b5060018301549050611b568161206c565b611b6360208601826118ec565b5060028301549050611b7481612038565b611b8160408601826118b0565b5060038301549050611b928161206c565b611b9f60608601826118ec565b5060048301549050611bb081612052565b611bbd60808601826118ce565b5050505050565b611bcd81611fd1565b82525050565b611bdc81611fd1565b82525050565b6000611bed826119dd565b9150819050919050565b6000611c0282611a23565b9150611c0e8285611943565b9150611c1982611a46565b9150611c258284611943565b91508190509392505050565b6000604082019050611c4660008301856118bf565b611c5360208301846118fb565b9392505050565b6000602082019050611c6f60008301846118dd565b92915050565b6000602082019050611c8a60008301846118fb565b92915050565b60006020820190508181036000830152611caa818461190a565b905092915050565b60006020820190508181036000830152611ccb81611974565b9050919050565b60006020820190508181036000830152611ceb81611997565b9050919050565b60006020820190508181036000830152611d0b816119ba565b9050919050565b60006020820190508181036000830152611d2b81611a00565b9050919050565b60006020820190508181036000830152611d4b81611a69565b9050919050565b6000604082019050611d676000830184611a8c565b92915050565b600060a082019050611d826000830184611abb565b92915050565b600060a082019050611d9d6000830184611b23565b92915050565b6000602082019050611db86000830184611bd3565b92915050565b6000604082019050611dd36000830185611bd3565b611de060208301846118fb565b9392505050565b600060a082019050611dfc6000830188611bd3565b611e0960208301876118fb565b611e1660408301866118bf565b611e2360608301856118fb565b611e3060808301846118dd565b9695505050505050565b600081519050919050565b600081905092915050565b600082825260208201905092915050565b600081905092915050565b6000611e7782611fd1565b9150611e8283611fd1565b9250827fffffffffffffffffffffffffffffffffffffffffffffffffffffffffffffffff03821115611eb757611eb66120a0565b5b828201905092915050565b6000611ecd82611fd1565b9150611ed883611fd1565b9250817fffffffffffffffffffffffffffffffffffffffffffffffffffffffffffffffff0483118215151615611f1157611f106120a0565b5b828202905092915050565b600073ffffffffffffffffffffffffffffffffffffffff82169050919050565b600060ff82169050919050565b6000819050919050565b6000819050919050565b6000611f6882611fb1565b9050919050565b60008115159050919050565b6000819050919050565b60007fffffffff0000000000000000000000000000000000000000000000000000000082169050919050565b600073ffffffffffffffffffffffffffffffffffffffff82169050919050565b6000819050919050565b60005b83811015611ff9578082015181840152602081019050611fde565b83811115612008576000848401525b50505050565b600061201982611fd1565b9150600082141561202d5761202c6120a0565b5b600182039050919050565b600061204b612046836120e0565b611f1c565b9050919050565b6000612065612060836120e0565b611f3c565b9050919050565b600061207f61207a836120e0565b611f49565b9050919050565b6000612099612094836120e0565b611f53565b9050919050565b7f4e487b7100000000000000000000000000000000000000000000000000000000600052601160045260246000fd5b6000601f19601f8301169050919050565b60008160001c9050919050565b7f537472696e67733a20686578206c656e67746820696e73756666696369656e74600082015250565b7f496e76616c696420616d6f756e74000000000000000000000000000000000000600082015250565b7f546869732070726f6475637420616c726561647920636f6e6669726d65642100600082015250565b50565b7f5472616e73666572206661696c65642e00000000000000000000000000000000600082015250565b7f416363657373436f6e74726f6c3a206163636f756e7420000000000000000000600082015250565b7f206973206d697373696e6720726f6c6520000000000000000000000000000000600082015250565b7f416363657373436f6e74726f6c3a2063616e206f6e6c792072656e6f756e636560008201527f20726f6c657320666f722073656c660000000000000000000000000000000000602082015250565b61223e81611f5d565b811461224957600080fd5b50565b61225581611f6f565b811461226057600080fd5b50565b61226c81611f7b565b811461227757600080fd5b50565b61228381611f85565b811461228e57600080fd5b50565b61229a81611fd1565b81146122a557600080fd5b5056fea26469706673582212207f34297722ffc597fc618ee91171d69dfebfb3b098ea661e13dc59d06e408eb764736f6c63430008040033",
  "immutableReferences": {},
  "source": "// SPDX-License-Identifier: MIT\r\npragma solidity ^0.8.4;\r\n\r\nimport \"@openzeppelin/contracts/access/AccessControl.sol\";\r\n\r\n\r\ncontract TomatoCheck is AccessControl {\r\n    bytes32 public constant COMPANY_ROLE = keccak256(\"COMPANY_ROLE\");\r\n    bytes32 public constant ADMIN_ROLE = keccak256(\"ADMIN_ROLE\");\r\n    struct Product {\r\n        uint productID;\r\n        bytes32 productName;\r\n        address Provider;\r\n        bytes32 Retailer;\r\n        bool isConfirmByRetailer;\r\n    }\r\n\r\n    struct ProductDiary{\r\n        uint timestamp;\r\n        bytes32 message;\r\n    }\r\n\r\n    mapping(uint => ProductDiary[]) public productDairy;\r\n\r\n    struct Company {\r\n        address companyAddress;\r\n        bytes32 companyName;\r\n    }\r\n    bool public isStopped = false;\r\n    mapping(address => Company) public companies;\r\n    mapping(uint => Product) public products;\r\n\r\n    constructor() {\r\n        _setupRole(DEFAULT_ADMIN_ROLE, msg.sender);\r\n        _setupRole(ADMIN_ROLE, msg.sender);\r\n    }\r\n\r\n    receive() external payable {}\r\n\r\n    // Modifiers zone\r\n    modifier checkConfirmByRetailer (uint productID){\r\n        require(products[productID].isConfirmByRetailer == false, \"This product already confirmed!\");\r\n        _;\r\n    }\r\n\r\n    modifier onlyWhenNotStopped {\r\n        require(!isStopped);\r\n        _;\r\n    }\r\n\r\n    modifier onlyWhenStopped {\r\n        require(isStopped);\r\n        _;\r\n    }\r\n\r\n\r\n    // Events zone\r\n    event productEvent(Product product);\r\n\r\n    event setCompanyEvent(Company company);\r\n\r\n    // Function zone\r\n    function acceptByRetailer (uint productID) external onlyRole(COMPANY_ROLE) checkConfirmByRetailer(productID) onlyWhenNotStopped {\r\n        products[productID].isConfirmByRetailer = true;\r\n        writeProductDairy(productID, \"Retailer accept product\");\r\n        // updateStatusOnProvider(productID, provider);\r\n        emit productEvent(products[productID]);\r\n    }\r\n\r\n    function createProduct(\r\n        uint productID,\r\n        bytes32 productName,\r\n        address Provider,\r\n        bool isConfirmByRetailer,\r\n        bytes32 Retailer\r\n    ) external payable onlyRole(COMPANY_ROLE) onlyWhenNotStopped {\r\n        require (msg.value >= 0.0001 ether, \"Invalid amount\");\r\n            Product memory product = Product(\r\n                productID,\r\n                productName,\r\n                Provider,\r\n                Retailer,\r\n                isConfirmByRetailer\r\n            );\r\n            products[productID] = product;\r\n            emit productEvent(product);\r\n        \r\n    }\r\n\r\n    function writeProductDairy(uint _productId, bytes32 _message) public onlyRole(COMPANY_ROLE) {\r\n        ProductDiary memory diary = ProductDiary(\r\n            block.timestamp,\r\n            _message\r\n        );\r\n        productDairy[_productId].push(diary);\r\n    }\r\n\r\n    function getProductDairyByProductID(uint _productId) external view returns(uint){\r\n        return productDairy[_productId].length;\r\n    }\r\n\r\n    function isCompany (address _address) external view returns (bool) {\r\n        return hasRole(COMPANY_ROLE, _address);\r\n\r\n    }\r\n\r\n    function setCompany(\r\n        address companyAddress,\r\n        bytes32 companyName\r\n    ) external payable onlyWhenNotStopped {\r\n        require(msg.value >= 0.01 ether, \"Invalid amount\");\r\n        Company memory newCompany = Company (\r\n            companyAddress,\r\n            companyName\r\n        );\r\n        _grantRole(COMPANY_ROLE, companyAddress);\r\n        companies[companyAddress] = newCompany;\r\n        emit setCompanyEvent(newCompany);\r\n\r\n    }\r\n\r\n    function selfDestruct()\r\n        external\r\n        onlyWhenStopped\r\n        onlyRole(ADMIN_ROLE)\r\n    {\r\n        selfdestruct(payable(msg.sender));\r\n    }\r\n\r\n    function stopContract()\r\n        external\r\n        onlyRole(ADMIN_ROLE)\r\n    {\r\n        isStopped = true;\r\n    }\r\n\r\n    function resumeContract()\r\n        external\r\n        onlyRole(ADMIN_ROLE)\r\n    {\r\n        isStopped = false;\r\n    }\r\n\r\n    function withdraw(uint amount)\r\n        external\r\n        onlyRole(ADMIN_ROLE)\r\n    {\r\n        require(hasRole(ADMIN_ROLE, msg.sender));\r\n        require(address(this).balance >= amount, \"Invalid amount\");\r\n        (bool success, ) = msg.sender.call{value: amount}(\"\");\r\n        require(success, \"Transfer failed.\");\r\n    }\r\n}",
  "sourcePath": "D:\\HomeWork\\blockchain\\tomato-chain\\contracts\\TomatoChain.sol",
  "compiler": {
    "name": "solc",
    "version": "0.8.4+commit.c7e474f2.Emscripten.clang"
  },
  "schemaVersion": "3.4.7",
  "updatedAt": "2022-06-02T18:56:22.315Z",
  "devdoc": {
    "kind": "dev",
    "methods": {
      "getRoleAdmin(bytes32)": {
        "details": "Returns the admin role that controls `role`. See {grantRole} and {revokeRole}. To change a role's admin, use {_setRoleAdmin}."
      },
      "grantRole(bytes32,address)": {
        "details": "Grants `role` to `account`. If `account` had not been already granted `role`, emits a {RoleGranted} event. Requirements: - the caller must have ``role``'s admin role."
      },
      "hasRole(bytes32,address)": {
        "details": "Returns `true` if `account` has been granted `role`."
      },
      "renounceRole(bytes32,address)": {
        "details": "Revokes `role` from the calling account. Roles are often managed via {grantRole} and {revokeRole}: this function's purpose is to provide a mechanism for accounts to lose their privileges if they are compromised (such as when a trusted device is misplaced). If the calling account had been revoked `role`, emits a {RoleRevoked} event. Requirements: - the caller must be `account`."
      },
      "revokeRole(bytes32,address)": {
        "details": "Revokes `role` from `account`. If `account` had been granted `role`, emits a {RoleRevoked} event. Requirements: - the caller must have ``role``'s admin role."
      },
      "supportsInterface(bytes4)": {
        "details": "See {IERC165-supportsInterface}."
      }
    },
    "version": 1
  },
  "userdoc": {
    "kind": "user",
    "methods": {},
    "version": 1
  }
}