{
  "contractName": "TomatoChain",
  "abi": [
    {
      "inputs": [],
      "stateMutability": "nonpayable",
      "type": "constructor"
    },
    {
      "anonymous": false,
      "inputs": [
        {
          "indexed": true,
          "internalType": "address",
          "name": "previousOwner",
          "type": "address"
        },
        {
          "indexed": true,
          "internalType": "address",
          "name": "newOwner",
          "type": "address"
        }
      ],
      "name": "OwnershipTransferred",
      "type": "event"
    },
    {
      "anonymous": false,
      "inputs": [
        {
          "indexed": true,
          "internalType": "bytes32",
          "name": "role",
          "type": "bytes32"
        },
        {
          "indexed": true,
          "internalType": "bytes32",
          "name": "previousAdminRole",
          "type": "bytes32"
        },
        {
          "indexed": true,
          "internalType": "bytes32",
          "name": "newAdminRole",
          "type": "bytes32"
        }
      ],
      "name": "RoleAdminChanged",
      "type": "event"
    },
    {
      "anonymous": false,
      "inputs": [
        {
          "indexed": true,
          "internalType": "bytes32",
          "name": "role",
          "type": "bytes32"
        },
        {
          "indexed": true,
          "internalType": "address",
          "name": "account",
          "type": "address"
        },
        {
          "indexed": true,
          "internalType": "address",
          "name": "sender",
          "type": "address"
        }
      ],
      "name": "RoleGranted",
      "type": "event"
    },
    {
      "anonymous": false,
      "inputs": [
        {
          "indexed": true,
          "internalType": "bytes32",
          "name": "role",
          "type": "bytes32"
        },
        {
          "indexed": true,
          "internalType": "address",
          "name": "account",
          "type": "address"
        },
        {
          "indexed": true,
          "internalType": "address",
          "name": "sender",
          "type": "address"
        }
      ],
      "name": "RoleRevoked",
      "type": "event"
    },
    {
      "anonymous": false,
      "inputs": [
        {
          "components": [
            {
              "internalType": "uint256",
              "name": "productID",
              "type": "uint256"
            },
            {
              "internalType": "string",
              "name": "productName",
              "type": "string"
            },
            {
              "internalType": "address",
              "name": "Provider",
              "type": "address"
            },
            {
              "internalType": "string",
              "name": "Retailer",
              "type": "string"
            },
            {
              "internalType": "bool",
              "name": "isConfirmByRetailer",
              "type": "bool"
            }
          ],
          "indexed": false,
          "internalType": "struct TomatoChain.Product",
          "name": "product",
          "type": "tuple"
        }
      ],
      "name": "productEvent",
      "type": "event"
    },
    {
      "anonymous": false,
      "inputs": [
        {
          "components": [
            {
              "internalType": "address",
              "name": "companyAddress",
              "type": "address"
            },
            {
              "internalType": "string",
              "name": "companyName",
              "type": "string"
            }
          ],
          "indexed": false,
          "internalType": "struct TomatoChain.Company",
          "name": "company",
          "type": "tuple"
        }
      ],
      "name": "setCompanyEvent",
      "type": "event"
    },
    {
      "inputs": [],
      "name": "DEFAULT_ADMIN_ROLE",
      "outputs": [
        {
          "internalType": "bytes32",
          "name": "",
          "type": "bytes32"
        }
      ],
      "stateMutability": "view",
      "type": "function"
    },
    {
      "inputs": [],
      "name": "_owner",
      "outputs": [
        {
          "internalType": "address payable",
          "name": "",
          "type": "address"
        }
      ],
      "stateMutability": "view",
      "type": "function"
    },
    {
      "inputs": [
        {
          "internalType": "address",
          "name": "",
          "type": "address"
        }
      ],
      "name": "companies",
      "outputs": [
        {
          "internalType": "address",
          "name": "companyAddress",
          "type": "address"
        },
        {
          "internalType": "string",
          "name": "companyName",
          "type": "string"
        }
      ],
      "stateMutability": "view",
      "type": "function"
    },
    {
      "inputs": [
        {
          "internalType": "bytes32",
          "name": "role",
          "type": "bytes32"
        }
      ],
      "name": "getRoleAdmin",
      "outputs": [
        {
          "internalType": "bytes32",
          "name": "",
          "type": "bytes32"
        }
      ],
      "stateMutability": "view",
      "type": "function"
    },
    {
      "inputs": [
        {
          "internalType": "bytes32",
          "name": "role",
          "type": "bytes32"
        },
        {
          "internalType": "address",
          "name": "account",
          "type": "address"
        }
      ],
      "name": "grantRole",
      "outputs": [],
      "stateMutability": "nonpayable",
      "type": "function"
    },
    {
      "inputs": [
        {
          "internalType": "bytes32",
          "name": "role",
          "type": "bytes32"
        },
        {
          "internalType": "address",
          "name": "account",
          "type": "address"
        }
      ],
      "name": "hasRole",
      "outputs": [
        {
          "internalType": "bool",
          "name": "",
          "type": "bool"
        }
      ],
      "stateMutability": "view",
      "type": "function"
    },
    {
      "inputs": [],
      "name": "isStopped",
      "outputs": [
        {
          "internalType": "bool",
          "name": "",
          "type": "bool"
        }
      ],
      "stateMutability": "view",
      "type": "function"
    },
    {
      "inputs": [],
      "name": "owner",
      "outputs": [
        {
          "internalType": "address",
          "name": "",
          "type": "address"
        }
      ],
      "stateMutability": "view",
      "type": "function"
    },
    {
      "inputs": [
        {
          "internalType": "uint256",
          "name": "",
          "type": "uint256"
        }
      ],
      "name": "products",
      "outputs": [
        {
          "internalType": "uint256",
          "name": "productID",
          "type": "uint256"
        },
        {
          "internalType": "string",
          "name": "productName",
          "type": "string"
        },
        {
          "internalType": "address",
          "name": "Provider",
          "type": "address"
        },
        {
          "internalType": "string",
          "name": "Retailer",
          "type": "string"
        },
        {
          "internalType": "bool",
          "name": "isConfirmByRetailer",
          "type": "bool"
        }
      ],
      "stateMutability": "view",
      "type": "function"
    },
    {
      "inputs": [],
      "name": "renounceOwnership",
      "outputs": [],
      "stateMutability": "nonpayable",
      "type": "function"
    },
    {
      "inputs": [
        {
          "internalType": "bytes32",
          "name": "role",
          "type": "bytes32"
        },
        {
          "internalType": "address",
          "name": "account",
          "type": "address"
        }
      ],
      "name": "renounceRole",
      "outputs": [],
      "stateMutability": "nonpayable",
      "type": "function"
    },
    {
      "inputs": [
        {
          "internalType": "bytes32",
          "name": "role",
          "type": "bytes32"
        },
        {
          "internalType": "address",
          "name": "account",
          "type": "address"
        }
      ],
      "name": "revokeRole",
      "outputs": [],
      "stateMutability": "nonpayable",
      "type": "function"
    },
    {
      "inputs": [
        {
          "internalType": "bytes4",
          "name": "interfaceId",
          "type": "bytes4"
        }
      ],
      "name": "supportsInterface",
      "outputs": [
        {
          "internalType": "bool",
          "name": "",
          "type": "bool"
        }
      ],
      "stateMutability": "view",
      "type": "function"
    },
    {
      "inputs": [
        {
          "internalType": "address",
          "name": "newOwner",
          "type": "address"
        }
      ],
      "name": "transferOwnership",
      "outputs": [],
      "stateMutability": "nonpayable",
      "type": "function"
    },
    {
      "stateMutability": "payable",
      "type": "receive"
    },
    {
      "inputs": [
        {
          "internalType": "uint256",
          "name": "productID",
          "type": "uint256"
        }
      ],
      "name": "acceptByRetailer",
      "outputs": [],
      "stateMutability": "nonpayable",
      "type": "function"
    },
    {
      "inputs": [
        {
          "internalType": "uint256",
          "name": "productID",
          "type": "uint256"
        },
        {
          "internalType": "string",
          "name": "productName",
          "type": "string"
        },
        {
          "internalType": "address",
          "name": "Provider",
          "type": "address"
        },
        {
          "internalType": "bool",
          "name": "isConfirmByRetailer",
          "type": "bool"
        },
        {
          "internalType": "string",
          "name": "Retailer",
          "type": "string"
        }
      ],
      "name": "createProduct",
      "outputs": [],
      "stateMutability": "payable",
      "type": "function"
    },
    {
      "inputs": [
        {
          "internalType": "address",
          "name": "_address",
          "type": "address"
        }
      ],
      "name": "isCompany",
      "outputs": [
        {
          "internalType": "bool",
          "name": "",
          "type": "bool"
        }
      ],
      "stateMutability": "view",
      "type": "function"
    },
    {
      "inputs": [
        {
          "internalType": "address",
          "name": "companyAddress",
          "type": "address"
        },
        {
          "internalType": "string",
          "name": "companyName",
          "type": "string"
        }
      ],
      "name": "setCompany",
      "outputs": [],
      "stateMutability": "payable",
      "type": "function"
    },
    {
      "inputs": [],
      "name": "selfDestruct",
      "outputs": [],
      "stateMutability": "nonpayable",
      "type": "function"
    },
    {
      "inputs": [],
      "name": "stopContract",
      "outputs": [],
      "stateMutability": "nonpayable",
      "type": "function"
    },
    {
      "inputs": [],
      "name": "resumeContract",
      "outputs": [],
      "stateMutability": "nonpayable",
      "type": "function"
    },
    {
      "inputs": [
        {
          "internalType": "uint256",
          "name": "amount",
          "type": "uint256"
        }
      ],
      "name": "withdraw",
      "outputs": [],
      "stateMutability": "nonpayable",
      "type": "function"
    }
  ],
  "bytecode": "0x60806040526000600160146101000a81548160ff0219169083151502179055503480156200002c57600080fd5b506200004d62000041620000a960201b60201c565b620000b160201b60201c565b620000626000801b336200017760201b60201c565b33600260006101000a81548173ffffffffffffffffffffffffffffffffffffffff021916908373ffffffffffffffffffffffffffffffffffffffff160217905550620002d2565b600033905090565b6000600160009054906101000a900473ffffffffffffffffffffffffffffffffffffffff16905081600160006101000a81548173ffffffffffffffffffffffffffffffffffffffff021916908373ffffffffffffffffffffffffffffffffffffffff1602179055508173ffffffffffffffffffffffffffffffffffffffff168173ffffffffffffffffffffffffffffffffffffffff167f8be0079c531659141344cd1fd0a4f28419497f9722a3daafe3b4186f6b6457e060405160405180910390a35050565b6200018982826200026860201b60201c565b6200026457600160008084815260200190815260200160002060000160008373ffffffffffffffffffffffffffffffffffffffff1673ffffffffffffffffffffffffffffffffffffffff16815260200190815260200160002060006101000a81548160ff02191690831515021790555062000209620000a960201b60201c565b73ffffffffffffffffffffffffffffffffffffffff168173ffffffffffffffffffffffffffffffffffffffff16837f2f8788117e7eff1d82e926ec794901d17c78024a50270940304540a733656f0d60405160405180910390a45b5050565b600080600084815260200190815260200160002060000160008373ffffffffffffffffffffffffffffffffffffffff1673ffffffffffffffffffffffffffffffffffffffff16815260200190815260200160002060009054906101000a900460ff16905092915050565b61299480620002e26000396000f3fe6080604052600436106101395760003560e01c80637acc0b20116100ab578063a0406ce21161006f578063a0406ce2146103f2578063a217fddf1461042f578063b2bdfa7b1461045a578063c4bc5da514610485578063d547741f1461049c578063f2fde38b146104c557610140565b80637acc0b20146103095780637b59e4e51461034a5780638da5cb5b1461037357806391d148541461039e5780639cb8a26a146103db57610140565b80632f2ff15d116100fd5780632f2ff15d1461021b578063355e6ce81461024457806336568abe146102825780633f683b6a146102ab578063715018a6146102d6578063762cbfb0146102ed57610140565b806301ffc9a71461014557806312253a6c1461018257806316ca438914610199578063248a9ca3146101b55780632e1a7d4d146101f257610140565b3661014057005b600080fd5b34801561015157600080fd5b5061016c60048036038101906101679190611bac565b6104ee565b6040516101799190612188565b60405180910390f35b34801561018e57600080fd5b50610197610568565b005b6101b360048036038101906101ae9190611af3565b610600565b005b3480156101c157600080fd5b506101dc60048036038101906101d79190611b47565b610770565b6040516101e991906121a3565b60405180910390f35b3480156101fe57600080fd5b5061021960048036038101906102149190611bd5565b61078f565b005b34801561022757600080fd5b50610242600480360381019061023d9190611b70565b6108dd565b005b34801561025057600080fd5b5061026b60048036038101906102669190611aca565b610906565b604051610279929190612158565b60405180910390f35b34801561028e57600080fd5b506102a960048036038101906102a49190611b70565b6109d2565b005b3480156102b757600080fd5b506102c0610a55565b6040516102cd9190612188565b60405180910390f35b3480156102e257600080fd5b506102eb610a68565b005b61030760048036038101906103029190611bfe565b610af0565b005b34801561031557600080fd5b50610330600480360381019061032b9190611bd5565b610c90565b604051610341959493929190612306565b60405180910390f35b34801561035657600080fd5b50610371600480360381019061036c9190611bd5565b610e03565b005b34801561037f57600080fd5b50610388610f37565b6040516103959190612122565b60405180910390f35b3480156103aa57600080fd5b506103c560048036038101906103c09190611b70565b610f61565b6040516103d29190612188565b60405180910390f35b3480156103e757600080fd5b506103f0610fcb565b005b3480156103fe57600080fd5b5061041960048036038101906104149190611aca565b61109b565b6040516104269190612188565b60405180910390f35b34801561043b57600080fd5b506104446110df565b60405161045191906121a3565b60405180910390f35b34801561046657600080fd5b5061046f6110e6565b60405161047c919061213d565b60405180910390f35b34801561049157600080fd5b5061049a61110c565b005b3480156104a857600080fd5b506104c360048036038101906104be9190611b70565b6111a5565b005b3480156104d157600080fd5b506104ec60048036038101906104e79190611aca565b6111ce565b005b60007f7965db0b000000000000000000000000000000000000000000000000000000007bffffffffffffffffffffffffffffffffffffffffffffffffffffffff1916827bffffffffffffffffffffffffffffffffffffffffffffffffffffffff191614806105615750610560826112c6565b5b9050919050565b610570611330565b73ffffffffffffffffffffffffffffffffffffffff1661058e610f37565b73ffffffffffffffffffffffffffffffffffffffff16146105e4576040517f08c379a00000000000000000000000000000000000000000000000000000000081526004016105db90612240565b60405180910390fd5b60018060146101000a81548160ff021916908315150217905550565b600160149054906101000a900460ff161561061a57600080fd5b662386f26fc1000034141561076657600060405180604001604052808473ffffffffffffffffffffffffffffffffffffffff1681526020018381525090506106827f9e1688b53537f356172ce07f39e129155063957163c5f9462d4d9e55b228b06c84611338565b80600360008573ffffffffffffffffffffffffffffffffffffffff1673ffffffffffffffffffffffffffffffffffffffff16815260200190815260200160002060008201518160000160006101000a81548173ffffffffffffffffffffffffffffffffffffffff021916908373ffffffffffffffffffffffffffffffffffffffff1602179055506020820151816001019080519060200190610725929190611956565b509050507f908c54ac1a9334d99259e4391b0787c462d2c9070021cb636266f373aa99d4d78160405161075891906122a0565b60405180910390a15061076b565b61076c565b5b5050565b6000806000838152602001908152602001600020600101549050919050565b610797611330565b73ffffffffffffffffffffffffffffffffffffffff166107b5610f37565b73ffffffffffffffffffffffffffffffffffffffff161461080b576040517f08c379a000000000000000000000000000000000000000000000000000000000815260040161080290612240565b60405180910390fd5b6000600260009054906101000a900473ffffffffffffffffffffffffffffffffffffffff1673ffffffffffffffffffffffffffffffffffffffff1682604051610853906120d3565b60006040518083038185875af1925050503d8060008114610890576040519150601f19603f3d011682016040523d82523d6000602084013e610895565b606091505b50509050806108d9576040517f08c379a00000000000000000000000000000000000000000000000000000000081526004016108d090612260565b60405180910390fd5b5050565b6108e682610770565b6108f7816108f2611330565b611418565b6109018383611338565b505050565b60036020528060005260406000206000915090508060000160009054906101000a900473ffffffffffffffffffffffffffffffffffffffff169080600101805461094f906125f8565b80601f016020809104026020016040519081016040528092919081815260200182805461097b906125f8565b80156109c85780601f1061099d576101008083540402835291602001916109c8565b820191906000526020600020905b8154815290600101906020018083116109ab57829003601f168201915b5050505050905082565b6109da611330565b73ffffffffffffffffffffffffffffffffffffffff168173ffffffffffffffffffffffffffffffffffffffff1614610a47576040517f08c379a0000000000000000000000000000000000000000000000000000000008152600401610a3e90612280565b60405180910390fd5b610a5182826114b5565b5050565b600160149054906101000a900460ff1681565b610a70611330565b73ffffffffffffffffffffffffffffffffffffffff16610a8e610f37565b73ffffffffffffffffffffffffffffffffffffffff1614610ae4576040517f08c379a0000000000000000000000000000000000000000000000000000000008152600401610adb90612240565b60405180910390fd5b610aee6000611596565b565b7f9e1688b53537f356172ce07f39e129155063957163c5f9462d4d9e55b228b06c610b2281610b1d611330565b611418565b600160149054906101000a900460ff1615610b3c57600080fd5b655af3107a4000341415610c885760006040518060a001604052808881526020018781526020018673ffffffffffffffffffffffffffffffffffffffff16815260200184815260200185151581525090508060046000898152602001908152602001600020600082015181600001556020820151816001019080519060200190610bc7929190611956565b5060408201518160020160006101000a81548173ffffffffffffffffffffffffffffffffffffffff021916908373ffffffffffffffffffffffffffffffffffffffff1602179055506060820151816003019080519060200190610c2b929190611956565b5060808201518160040160006101000a81548160ff0219169083151502179055509050507fd642b0e9250be45b5334891bb64f9230cd1e141ddab07e2b0ace5e23b1df5f5681604051610c7e91906122c2565b60405180910390a1505b505050505050565b6004602052806000526040600020600091509050806000015490806001018054610cb9906125f8565b80601f0160208091040260200160405190810160405280929190818152602001828054610ce5906125f8565b8015610d325780601f10610d0757610100808354040283529160200191610d32565b820191906000526020600020905b815481529060010190602001808311610d1557829003601f168201915b5050505050908060020160009054906101000a900473ffffffffffffffffffffffffffffffffffffffff1690806003018054610d6d906125f8565b80601f0160208091040260200160405190810160405280929190818152602001828054610d99906125f8565b8015610de65780601f10610dbb57610100808354040283529160200191610de6565b820191906000526020600020905b815481529060010190602001808311610dc957829003601f168201915b5050505050908060040160009054906101000a900460ff16905085565b7f9e1688b53537f356172ce07f39e129155063957163c5f9462d4d9e55b228b06c610e3581610e30611330565b611418565b81600015156004600083815260200190815260200160002060040160009054906101000a900460ff16151514610ea0576040517f08c379a0000000000000000000000000000000000000000000000000000000008152600401610e9790612220565b60405180910390fd5b600160149054906101000a900460ff1615610eba57600080fd5b60016004600085815260200190815260200160002060040160006101000a81548160ff0219169083151502179055507fd642b0e9250be45b5334891bb64f9230cd1e141ddab07e2b0ace5e23b1df5f5660046000858152602001908152602001600020604051610f2a91906122e4565b60405180910390a1505050565b6000600160009054906101000a900473ffffffffffffffffffffffffffffffffffffffff16905090565b600080600084815260200190815260200160002060000160008373ffffffffffffffffffffffffffffffffffffffff1673ffffffffffffffffffffffffffffffffffffffff16815260200190815260200160002060009054906101000a900460ff16905092915050565b600160149054906101000a900460ff16610fe457600080fd5b610fec611330565b73ffffffffffffffffffffffffffffffffffffffff1661100a610f37565b73ffffffffffffffffffffffffffffffffffffffff1614611060576040517f08c379a000000000000000000000000000000000000000000000000000000000815260040161105790612240565b60405180910390fd5b600260009054906101000a900473ffffffffffffffffffffffffffffffffffffffff1673ffffffffffffffffffffffffffffffffffffffff16ff5b60006110c77f9e1688b53537f356172ce07f39e129155063957163c5f9462d4d9e55b228b06c83610f61565b156110d557600190506110da565b600090505b919050565b6000801b81565b600260009054906101000a900473ffffffffffffffffffffffffffffffffffffffff1681565b611114611330565b73ffffffffffffffffffffffffffffffffffffffff16611132610f37565b73ffffffffffffffffffffffffffffffffffffffff1614611188576040517f08c379a000000000000000000000000000000000000000000000000000000000815260040161117f90612240565b60405180910390fd5b6000600160146101000a81548160ff021916908315150217905550565b6111ae82610770565b6111bf816111ba611330565b611418565b6111c983836114b5565b505050565b6111d6611330565b73ffffffffffffffffffffffffffffffffffffffff166111f4610f37565b73ffffffffffffffffffffffffffffffffffffffff161461124a576040517f08c379a000000000000000000000000000000000000000000000000000000000815260040161124190612240565b60405180910390fd5b600073ffffffffffffffffffffffffffffffffffffffff168173ffffffffffffffffffffffffffffffffffffffff1614156112ba576040517f08c379a00000000000000000000000000000000000000000000000000000000081526004016112b190612200565b60405180910390fd5b6112c381611596565b50565b60007f01ffc9a7000000000000000000000000000000000000000000000000000000007bffffffffffffffffffffffffffffffffffffffffffffffffffffffff1916827bffffffffffffffffffffffffffffffffffffffffffffffffffffffff1916149050919050565b600033905090565b6113428282610f61565b61141457600160008084815260200190815260200160002060000160008373ffffffffffffffffffffffffffffffffffffffff1673ffffffffffffffffffffffffffffffffffffffff16815260200190815260200160002060006101000a81548160ff0219169083151502179055506113b9611330565b73ffffffffffffffffffffffffffffffffffffffff168173ffffffffffffffffffffffffffffffffffffffff16837f2f8788117e7eff1d82e926ec794901d17c78024a50270940304540a733656f0d60405160405180910390a45b5050565b6114228282610f61565b6114b1576114478173ffffffffffffffffffffffffffffffffffffffff16601461165c565b6114558360001c602061165c565b6040516020016114669291906120e8565b6040516020818303038152906040526040517f08c379a00000000000000000000000000000000000000000000000000000000081526004016114a891906121be565b60405180910390fd5b5050565b6114bf8282610f61565b1561159257600080600084815260200190815260200160002060000160008373ffffffffffffffffffffffffffffffffffffffff1673ffffffffffffffffffffffffffffffffffffffff16815260200190815260200160002060006101000a81548160ff021916908315150217905550611537611330565b73ffffffffffffffffffffffffffffffffffffffff168173ffffffffffffffffffffffffffffffffffffffff16837ff6391f5c32d9c69d2a47ea670b442974b53935d1edc7fd64eb21e047a839171b60405160405180910390a45b5050565b6000600160009054906101000a900473ffffffffffffffffffffffffffffffffffffffff16905081600160006101000a81548173ffffffffffffffffffffffffffffffffffffffff021916908373ffffffffffffffffffffffffffffffffffffffff1602179055508173ffffffffffffffffffffffffffffffffffffffff168173ffffffffffffffffffffffffffffffffffffffff167f8be0079c531659141344cd1fd0a4f28419497f9722a3daafe3b4186f6b6457e060405160405180910390a35050565b60606000600283600261166f919061246b565b6116799190612415565b67ffffffffffffffff8111156116b8577f4e487b7100000000000000000000000000000000000000000000000000000000600052604160045260246000fd5b6040519080825280601f01601f1916602001820160405280156116ea5781602001600182028036833780820191505090505b5090507f300000000000000000000000000000000000000000000000000000000000000081600081518110611748577f4e487b7100000000000000000000000000000000000000000000000000000000600052603260045260246000fd5b60200101907effffffffffffffffffffffffffffffffffffffffffffffffffffffffffffff1916908160001a9053507f7800000000000000000000000000000000000000000000000000000000000000816001815181106117d2577f4e487b7100000000000000000000000000000000000000000000000000000000600052603260045260246000fd5b60200101907effffffffffffffffffffffffffffffffffffffffffffffffffffffffffffff1916908160001a90535060006001846002611812919061246b565b61181c9190612415565b90505b6001811115611908577f3031323334353637383961626364656600000000000000000000000000000000600f861660108110611884577f4e487b7100000000000000000000000000000000000000000000000000000000600052603260045260246000fd5b1a60f81b8282815181106118c1577f4e487b7100000000000000000000000000000000000000000000000000000000600052603260045260246000fd5b60200101907effffffffffffffffffffffffffffffffffffffffffffffffffffffffffffff1916908160001a905350600485901c945080611901906125ce565b905061181f565b506000841461194c576040517f08c379a0000000000000000000000000000000000000000000000000000000008152600401611943906121e0565b60405180910390fd5b8091505092915050565b828054611962906125f8565b90600052602060002090601f01602090048101928261198457600085556119cb565b82601f1061199d57805160ff19168380011785556119cb565b828001600101855582156119cb579182015b828111156119ca5782518255916020019190600101906119af565b5b5090506119d891906119dc565b5090565b5b808211156119f55760008160009055506001016119dd565b5090565b6000611a0c611a078461238c565b612367565b905082815260208101848484011115611a2457600080fd5b611a2f84828561258c565b509392505050565b600081359050611a46816128eb565b92915050565b600081359050611a5b81612902565b92915050565b600081359050611a7081612919565b92915050565b600081359050611a8581612930565b92915050565b600082601f830112611a9c57600080fd5b8135611aac8482602086016119f9565b91505092915050565b600081359050611ac481612947565b92915050565b600060208284031215611adc57600080fd5b6000611aea84828501611a37565b91505092915050565b60008060408385031215611b0657600080fd5b6000611b1485828601611a37565b925050602083013567ffffffffffffffff811115611b3157600080fd5b611b3d85828601611a8b565b9150509250929050565b600060208284031215611b5957600080fd5b6000611b6784828501611a61565b91505092915050565b60008060408385031215611b8357600080fd5b6000611b9185828601611a61565b9250506020611ba285828601611a37565b9150509250929050565b600060208284031215611bbe57600080fd5b6000611bcc84828501611a76565b91505092915050565b600060208284031215611be757600080fd5b6000611bf584828501611ab5565b91505092915050565b600080600080600060a08688031215611c1657600080fd5b6000611c2488828901611ab5565b955050602086013567ffffffffffffffff811115611c4157600080fd5b611c4d88828901611a8b565b9450506040611c5e88828901611a37565b9350506060611c6f88828901611a4c565b925050608086013567ffffffffffffffff811115611c8c57600080fd5b611c9888828901611a8b565b9150509295509295909350565b611cae8161250e565b82525050565b611cbd816124fc565b82525050565b611ccc816124fc565b82525050565b611cdb81612520565b82525050565b611cea81612520565b82525050565b611cf98161252c565b82525050565b6000611d0a826123d2565b611d1481856123e8565b9350611d2481856020860161259b565b611d2d81612736565b840191505092915050565b6000611d43826123d2565b611d4d81856123f9565b9350611d5d81856020860161259b565b611d6681612736565b840191505092915050565b6000611d7c826123d2565b611d86818561240a565b9350611d9681856020860161259b565b80840191505092915050565b60008154611daf816125f8565b611db981866123e8565b94506001821660008114611dd45760018114611de657611e19565b60ff1983168652602086019350611e19565b611def856123bd565b60005b83811015611e1157815481890152600182019150602081019050611df2565b808801955050505b50505092915050565b6000611e2f6020836123f9565b9150611e3a82612754565b602082019050919050565b6000611e526026836123f9565b9150611e5d8261277d565b604082019050919050565b6000611e75601f836123f9565b9150611e80826127cc565b602082019050919050565b6000611e986020836123f9565b9150611ea3826127f5565b602082019050919050565b6000611ebb6000836123dd565b9150611ec68261281e565b600082019050919050565b6000611ede6010836123f9565b9150611ee982612821565b602082019050919050565b6000611f0160178361240a565b9150611f0c8261284a565b601782019050919050565b6000611f2460118361240a565b9150611f2f82612873565b601182019050919050565b6000611f47602f836123f9565b9150611f528261289c565b604082019050919050565b6000604083016000830151611f756000860182611cb4565b5060208301518482036020860152611f8d8282611cff565b9150508091505092915050565b600060a083016000830151611fb260008601826120b5565b5060208301518482036020860152611fca8282611cff565b9150506040830151611fdf6040860182611cb4565b5060608301518482036060860152611ff78282611cff565b915050608083015161200c6080860182611cd2565b508091505092915050565b600060a08301600080840154905061202e8161265e565b61203b60008701826120b5565b506001840185830360208701526120528382611da2565b925050600284015490506120658161262a565b6120726040870182611cb4565b506003840185830360608701526120898382611da2565b9250506004840154905061209c81612644565b6120a96080870182611cd2565b50819250505092915050565b6120be81612582565b82525050565b6120cd81612582565b82525050565b60006120de82611eae565b9150819050919050565b60006120f382611ef4565b91506120ff8285611d71565b915061210a82611f17565b91506121168284611d71565b91508190509392505050565b60006020820190506121376000830184611cc3565b92915050565b60006020820190506121526000830184611ca5565b92915050565b600060408201905061216d6000830185611cc3565b818103602083015261217f8184611d38565b90509392505050565b600060208201905061219d6000830184611ce1565b92915050565b60006020820190506121b86000830184611cf0565b92915050565b600060208201905081810360008301526121d88184611d38565b905092915050565b600060208201905081810360008301526121f981611e22565b9050919050565b6000602082019050818103600083015261221981611e45565b9050919050565b6000602082019050818103600083015261223981611e68565b9050919050565b6000602082019050818103600083015261225981611e8b565b9050919050565b6000602082019050818103600083015261227981611ed1565b9050919050565b6000602082019050818103600083015261229981611f3a565b9050919050565b600060208201905081810360008301526122ba8184611f5d565b905092915050565b600060208201905081810360008301526122dc8184611f9a565b905092915050565b600060208201905081810360008301526122fe8184612017565b905092915050565b600060a08201905061231b60008301886120c4565b818103602083015261232d8187611d38565b905061233c6040830186611cc3565b818103606083015261234e8185611d38565b905061235d6080830184611ce1565b9695505050505050565b6000612371612382565b905061237d8282612678565b919050565b6000604051905090565b600067ffffffffffffffff8211156123a7576123a6612707565b5b6123b082612736565b9050602081019050919050565b60008190508160005260206000209050919050565b600081519050919050565b600081905092915050565b600082825260208201905092915050565b600082825260208201905092915050565b600081905092915050565b600061242082612582565b915061242b83612582565b9250827fffffffffffffffffffffffffffffffffffffffffffffffffffffffffffffffff038211156124605761245f6126a9565b5b828201905092915050565b600061247682612582565b915061248183612582565b9250817fffffffffffffffffffffffffffffffffffffffffffffffffffffffffffffffff04831182151516156124ba576124b96126a9565b5b828202905092915050565b600073ffffffffffffffffffffffffffffffffffffffff82169050919050565b600060ff82169050919050565b6000819050919050565b600061250782612562565b9050919050565b600061251982612562565b9050919050565b60008115159050919050565b6000819050919050565b60007fffffffff0000000000000000000000000000000000000000000000000000000082169050919050565b600073ffffffffffffffffffffffffffffffffffffffff82169050919050565b6000819050919050565b82818337600083830152505050565b60005b838110156125b957808201518184015260208101905061259e565b838111156125c8576000848401525b50505050565b60006125d982612582565b915060008214156125ed576125ec6126a9565b5b600182039050919050565b6000600282049050600182168061261057607f821691505b60208210811415612624576126236126d8565b5b50919050565b600061263d61263883612747565b6124c5565b9050919050565b600061265761265283612747565b6124e5565b9050919050565b600061267161266c83612747565b6124f2565b9050919050565b61268182612736565b810181811067ffffffffffffffff821117156126a05761269f612707565b5b80604052505050565b7f4e487b7100000000000000000000000000000000000000000000000000000000600052601160045260246000fd5b7f4e487b7100000000000000000000000000000000000000000000000000000000600052602260045260246000fd5b7f4e487b7100000000000000000000000000000000000000000000000000000000600052604160045260246000fd5b6000601f19601f8301169050919050565b60008160001c9050919050565b7f537472696e67733a20686578206c656e67746820696e73756666696369656e74600082015250565b7f4f776e61626c653a206e6577206f776e657220697320746865207a65726f206160008201527f6464726573730000000000000000000000000000000000000000000000000000602082015250565b7f546869732070726f6475637420616c726561647920636f6e6669726d65642100600082015250565b7f4f776e61626c653a2063616c6c6572206973206e6f7420746865206f776e6572600082015250565b50565b7f5472616e73666572206661696c65642e00000000000000000000000000000000600082015250565b7f416363657373436f6e74726f6c3a206163636f756e7420000000000000000000600082015250565b7f206973206d697373696e6720726f6c6520000000000000000000000000000000600082015250565b7f416363657373436f6e74726f6c3a2063616e206f6e6c792072656e6f756e636560008201527f20726f6c657320666f722073656c660000000000000000000000000000000000602082015250565b6128f4816124fc565b81146128ff57600080fd5b50565b61290b81612520565b811461291657600080fd5b50565b6129228161252c565b811461292d57600080fd5b50565b61293981612536565b811461294457600080fd5b50565b61295081612582565b811461295b57600080fd5b5056fea2646970667358221220b756b799abbe4f8cbf456908081ae9a020e857b8f306c0ff6018f01817b7239064736f6c63430008040033",
  "immutableReferences": {},
  "source": "// SPDX-License-Identifier: MIT\npragma solidity ^0.8.4;\n\n// import \"@openzeppelin/contracts/token/ERC20/ERC20.sol\";\nimport \"@openzeppelin/contracts/access/AccessControl.sol\";\nimport \"@openzeppelin/contracts/access/Ownable.sol\";\n\ncontract TomatoChain is AccessControl, Ownable {\n    bytes32 private constant COMPANY_ROLE = keccak256(\"COMPANY_ROLE\");\n\n    struct Product {\n        uint productID;\n        string productName;\n        // uint productPrice;\n        // string productDescription;\n        address Provider;\n        string Retailer;\n        bool isConfirmByRetailer;\n        // string dateOfManufacture;\n        // string expirationDate;\n        // uint quantity;\n    }\n    struct Company {\n        address companyAddress;\n        string companyName;\n        // string companyPhoneNumber;\n        // string companyEmail;\n    }\n    bool public isStopped = false;\n    address payable public _owner;\n    // uint public numberOfCompany;\n    // uint public numberOfProduct;\n    // mapping(uint => Product) public productByProductId;\n    // mapping(string => uint) public totalRetailer;\n    // mapping(address => uint) public totalProvider;\n    // mapping(string => mapping(uint => Product)) public totalProductRetailer;\n    // mapping(address => mapping(uint => Product)) public totalProductProvider;\n    // mapping(address => Company) public companies;\n    mapping(address => Company) public companies;\n    mapping(uint => Product) public products;\n\n    constructor() {\n        _grantRole(DEFAULT_ADMIN_ROLE, msg.sender);\n        _owner = payable(msg.sender);\n    }\n\n    receive() external payable {}\n\n    // Modifiers zone\n    modifier checkConfirmByRetailer (uint productID){\n        require(products[productID].isConfirmByRetailer == false, \"This product already confirmed!\");\n        _;\n    }\n\n    // modifier checkProviderOfProduct (uint productID, address sender){\n    //     require(productByProductId[productID].Provider == sender, \"This product not your!\");\n    //     _;\n    // }\n\n    modifier onlyWhenNotStopped {\n        require(!isStopped);\n        _;\n    }\n\n    modifier onlyWhenStopped {\n        require(isStopped);\n        _;\n    }\n\n\n    // Events zone\n    event productEvent(Product product);\n\n    event setCompanyEvent(Company company);\n\n    // Function zone\n    // function getTotalProvider (address provider) external view returns (uint) {\n    //     return totalProvider[provider];\n    // }\n\n    // function getCompanyInfo (address _address) external view returns (Company memory) {\n    //     return companies[_address];\n    // }\n\n    function acceptByRetailer (uint productID) external onlyRole(COMPANY_ROLE) checkConfirmByRetailer(productID) onlyWhenNotStopped {\n        products[productID].isConfirmByRetailer = true;\n        // updateStatusOnProvider(productID, provider);\n        emit productEvent(products[productID]);\n    }\n    // function updateStatusOnProvider (uint productID, address provider) private {\n    //     uint _totalProvider = totalProvider[provider];\n    //     for (uint i = 0; i <= _totalProvider; i++) {\n    //         if (totalProductProvider[provider][i].productID == productID) {\n    //             totalProductProvider[provider][i].isConfirmByRetailer = true;\n    //         }\n    //     }\n    // }\n\n    function createProduct(\n        uint productID,\n        string memory productName,\n        // uint productPrice,\n        // string memory productDescription,\n        address Provider,\n        bool isConfirmByRetailer,\n        string memory Retailer\n        // string memory dateOfManufacture,\n        // string memory expirationDate,\n        // uint quantity\n    ) external payable onlyRole(COMPANY_ROLE) onlyWhenNotStopped {\n        if (msg.value == 0.0001 ether) {\n            Product memory product = Product(\n                productID,\n                productName,\n                // productPrice,\n                // productDescription,\n                Provider,\n                Retailer,\n                isConfirmByRetailer\n                // dateOfManufacture,\n                // expirationDate,\n                // quantity\n            );\n            // productByProductId[productID] = product;\n            // totalRetailer[Retailer]++;\n            // totalProvider[Provider]++;\n            // numberOfProduct++;\n            products[productID] = product;\n            // totalProductRetailer[Retailer][totalRetailer[Retailer]] = product;\n            // totalProductProvider[Provider][totalProvider[Provider]] = product;\n            emit productEvent(product);\n        }\n    }\n\n    function isCompany (address _address) external view returns (bool) {\n        if (hasRole(COMPANY_ROLE, _address)) {\n            return true;\n        } else {\n            return false;\n        }\n    }\n\n    function setCompany(\n        address companyAddress,\n        string memory companyName\n        // string memory companyPhoneNumber,\n        // string memory companyEmail\n    ) external payable onlyWhenNotStopped {\n        if (msg.value == 0.01 ether) {\n            Company memory newCompany = Company (\n                companyAddress,\n                companyName\n                // companyPhoneNumber,\n                // companyEmail\n            );\n            // companies[companyAddress] = newCompany;\n            _grantRole(COMPANY_ROLE, companyAddress);\n            // numberOfCompany++;\n            companies[companyAddress] = newCompany;\n            emit setCompanyEvent(newCompany);\n        } else {\n            return;\n        }\n    }\n\n    function selfDestruct()\n        external\n        onlyWhenStopped\n        onlyOwner\n    {\n        selfdestruct(_owner);\n    }\n\n    function stopContract()\n        external\n        onlyOwner\n    {\n        isStopped = true;\n    }\n\n    function resumeContract()\n        external\n        onlyOwner\n    {\n        isStopped = false;\n    }\n\n    function withdraw(uint amount)\n        external\n        onlyOwner\n    {\n        (bool success, ) = _owner.call{value: amount}(\"\");\n        require(success, \"Transfer failed.\");\n    }\n}",
  "sourcePath": "/Users/leducthang/Desktop/blockchain/tomato-chain/contracts/a.sol",
  "compiler": {
    "name": "solc",
    "version": "0.8.4+commit.c7e474f2.Emscripten.clang"
  },
  "schemaVersion": "3.4.6",
  "updatedAt": "2022-05-11T18:35:08.541Z",
  "devdoc": {
    "kind": "dev",
    "methods": {
      "getRoleAdmin(bytes32)": {
        "details": "Returns the admin role that controls `role`. See {grantRole} and {revokeRole}. To change a role's admin, use {_setRoleAdmin}."
      },
      "grantRole(bytes32,address)": {
        "details": "Grants `role` to `account`. If `account` had not been already granted `role`, emits a {RoleGranted} event. Requirements: - the caller must have ``role``'s admin role."
      },
      "hasRole(bytes32,address)": {
        "details": "Returns `true` if `account` has been granted `role`."
      },
      "owner()": {
        "details": "Returns the address of the current owner."
      },
      "renounceOwnership()": {
        "details": "Leaves the contract without owner. It will not be possible to call `onlyOwner` functions anymore. Can only be called by the current owner. NOTE: Renouncing ownership will leave the contract without an owner, thereby removing any functionality that is only available to the owner."
      },
      "renounceRole(bytes32,address)": {
        "details": "Revokes `role` from the calling account. Roles are often managed via {grantRole} and {revokeRole}: this function's purpose is to provide a mechanism for accounts to lose their privileges if they are compromised (such as when a trusted device is misplaced). If the calling account had been revoked `role`, emits a {RoleRevoked} event. Requirements: - the caller must be `account`."
      },
      "revokeRole(bytes32,address)": {
        "details": "Revokes `role` from `account`. If `account` had been granted `role`, emits a {RoleRevoked} event. Requirements: - the caller must have ``role``'s admin role."
      },
      "supportsInterface(bytes4)": {
        "details": "See {IERC165-supportsInterface}."
      },
      "transferOwnership(address)": {
        "details": "Transfers ownership of the contract to a new account (`newOwner`). Can only be called by the current owner."
      }
    },
    "version": 1
  },
  "userdoc": {
    "kind": "user",
    "methods": {},
    "version": 1
  }
}